:200000000C9417010C942B010C942B010C942B010C942B010C942B010C942B010C942B0194
:200020000C942B010C942B010C942B010C942B010C942B010C942B010C942B010C942B0160
:200040000C942B010C942B010C942B010C942B010C942B010C942B010C942B010C9410025A
:200060000C942B010C942B010C942B010C942B010C942B010C942B010C942B010C942B0120
:200080000C942B010C942B010C942B010C942B010C942B010C942B010C942B010C942B0100
:2000A0000C942B010C942B010C942B010C942B010C942B010C942B010C942B010C942B01E0
:2000C0000C942B010C942B010C942B010C942B010C942B010C942B010C942B010C942B01C0
:2000E0000C942B010C9485010C94AF010C94AB010C945E010C9474010C9459010C9497012C
:200100000C94A1010C947F010C9478010C948F010C947C010C9489010C9470010C949301A8
:200120000C94A5010C949D0100002100240027002A002D0030003300010100000401070106
:200140000A0100002200250028002B002E003100340002010000050108010B010505050535
:20016000070508080808020202020A0A0808040404040101010101010101030303030303FD
:200180000303040707070C0C0C0C0C0C0C0C0202020206060606060606060B0B0B0B0B0B66
:2001A0000B0B01021020200808102040102040800201020108040201010204081020408052
:2001C00080402010080402018004020180402010080402010804020101020408102040808C
:2001E000010204081020408000000A0B02090C0D0E080703040100000000000000000000A2
:200200000000000000000000000000000000000000000000121110000000000000000000AB
:20022000000000000000000000000000000011241FBECFEFD1E2DEBFCDBF00E00CBF22E065
:20024000A0E0B2E001C01D92A930B207E1F70E945A020C94FE020C940000382FE5EFF1E068
:200260008491EFEAF1E02491E9E6F1E09491992309F435C0882311F181508231F8F4E82F63
:20028000F0E08827E95BFE4F8F4F0C94F60278017C015901700174015E017F0185018901B3
:2002A0008F01930197019D01A1015E01A501AB01AF01809180008F7780938000E92FF0E0CF
:2002C000EE0FFF1FEE5BFE4FA591B4918FB7F894EC91311148C020952E232C938FBF0895A9
:2002E000809180008F7DE8CF80918000877FE4CF84B58F7784BDE2CF84B58F7DFBCF80910F
:20030000B0008F778093B000D9CF8091B0008F7DF9CF809190008F7780939000CFCF80912E
:2003200090008F7DF9CF80919000877FF5CF8091A0008F778093A000C1CF8091A0008F7D37
:20034000F9CF8091A000877FF5CF809120018F7780932001B3CF809120018F7DF9CF809155
:200360002001877FF5CF2E2BB8CF3FB7F8948091050290910602A0910702B091080226B58F
:20038000A89B05C02F3F19F00196A11DB11D3FBFBA2FA92F982F8827BC01CD01620F711DFC
:2003A000811D911D42E0660F771F881F991F4A95D1F708958F929F92AF92BF92CF92DF926B
:2003C000EF92FF920E94B5014B015C0188EEC82E83E0D82EE12CF12C0E94B50168197909B0
:2003E0008A099B09683E734081059105A8F321E0C21AD108E108F10888EE880E83E0981EF9
:20040000A11CB11CC114D104E104F10429F7FF90EF90DF90CF90BF90AF909F908F90089559
:200420001F920F920FB60F9211242F933F938F939F93AF93BF938091010290910202A091E9
:200440000302B09104023091000223E0230F2D3758F50196A11DB11D2093000280930102B9
:2004600090930202A0930302B09304028091050290910602A0910702B09108020196A11DB9
:20048000B11D8093050290930602A0930702B0930802BF91AF919F918F913F912F910F90B1
:2004A0000FBE0F901F90189526E8230F0296A11DB11DD2CF789484B5826084BD84B58160ED
:2004C00084BD85B5826085BD85B5816085BD80916E00816080936E0010928100809181008A
:2004E00082608093810080918100816080938100809180008160809380008091B1008460D4
:200500008093B1008091B00081608093B000809191008260809391008091910081608093F4
:200520009100809190008160809390008091A10082608093A1008091A10081608093A10076
:200540008091A00081608093A00080912101826080932101809121018160809321018091B2
:20056000200181608093200180917A00846080937A0080917A00826080937A0080917A00C4
:20058000816080937A0080917A00806880937A001092C100EFEAF1E02491E9E6F1E0849176
:2005A000882399F090E0880F991FFC01E85DFE4FA591B491FC01EE5BFE4F859194918FB72A
:2005C000F894EC91E22BEC938FBFC0E0D0E081E00E942D010E94DA0180E00E942D010E9468
:2005E000DA012097A1F30E940000F1CFEE0FFF1F881F8BBF0790F691E02D1994F894FFCF35
:200600008E110CC00FB607FCFACFE889F989808185FFF5CFCE010E94AE02F1CFEB8DEC0F4E
:20062000FD2FF11DE35AFF4FF0829FB7F8940B8FEA89FB8980818062CFCFCF93DF93EC01CE
:20064000888D8823B9F0AA89BB89E889F9898C9185FD03C0808186FD0DC00FB607FCF7CF86
:200660008C9185FFF2CF808185FFEDCFCE010E94AE02E9CFDF91CF91089580E090E0892B0D
:2006800029F00E94A40281110E94000080E090E0892B49F080E090E0892B29F00E940000C9
:2006A00081110E94000080E090E0892B49F080E090E0892B29F00E94000081110E940000D6
:2006C00080E090E0892B49F080E090E0892B29F00E94000081110C94000008951F920F92FD
:2006E0000FB60F9211242F933F938F939F93AF93BF938091CA029091CB02A091CC02B091D8
:20070000CD023091C90223E0230F2D3758F50196A11DB11D2093C9028093CA029093CB0228
:20072000A093CC02B093CD028091CE029091CF02A091D002B091D1020196A11DB11D809386
:20074000CE029093CF02A093D002B093D102BF91AF919F918F913F912F910F900FBE0F903F
:200760001F90189526E8230F0296A11DB11DD2CF1F920F920FB60F9211240BB60F922F9307
:200780003F934F935F936F937F938F939F93AF93BF93EF93FF938CE292E00E94AE02FF91E1
:2007A000EF91BF91AF919F918F917F916F915F914F913F912F910F900BBE0F900FBE0F90F6
:2007C0001F9018951F920F920FB60F9211240BB60F922F938F939F93EF93FF93E0913C0295
:2007E000F0913D028081E0914202F091430282FD1DC09081809145028F5F8F73209146020F
:20080000821741F0E0914502F0E0E45DFD4F958F80934502FF91EF919F918F912F910F90BC
:200820000BBE0F900FBE0F901F9018958081F2CF789484B5826084BD84B5816084BD85B5C9
:20084000826085BD85B5816085BD80916E00816080936E001092810080918100826080938C
:20086000810080918100816080938100809180008160809380008091B10084608093B10081
:200880008091B00081608093B0008091910082608093910080919100816080939100809193
:2008A00090008160809390008091A10082608093A1008091A10081608093A1008091A000E4
:2008C00081608093A0008091210182608093210180912101816080932101809120018160DE
:2008E0008093200180917A00846080937A0080917A00826080937A0080917A00816080934F
:200900007A0080917A00806880937A001092C100EFECF1E02491E9E8F1E08491882399F0AE
:2009200090E0880F991FFC01E85BFE4FA591B491FC01EE59FE4F859194918FB7F894EC91D5
:20094000E22BEC938FBFE0913C02F0913D0282E08083E0913802F09139021082E0913A0243
:20096000F0913B028FEC808310924402E0914002F091410286E08083E0913E02F0913F0200
:20098000808180618083E0913E02F0913F02808188608083E0913E02F0913F0280818068B7
:2009A0008083E0913E02F0913F0280818F7D808345E150E062E172E08CE292E00E943A0208
:2009C00042E050E068E272E08CE292E00E943A0268EC70E080E090E00E94080281E00E9448
:2009E0005B0164E670E080E090E00E94080280E00E945B0164E670E080E090E00E94080211
:200A00000E943D03D5CFECE2F2E01382128288EE93E0A0E0B0E084839583A683B78384E0A8
:200A200092E09183808385EC90E09587848784EC90E09787868780EC90E0918B808B81ECAA
:200A400090E0938B828B82EC90E0958B848B86EC90E0978B868B118E128E138E148E0895BA
:200A6000EE0FFF1F881F8BBF0790F691E02D1994F894FFCF00000000D0023A0267021D03A1
:200A8000980276028A0241726475696E6F2032353630E5BC80E58F91E69DBF000D0A00007A
:200AA000FFFFFFFFFFFFFFFFFFFFFFFFFFFFFFFFFFFFFFFFFFFFFFFFFFFFFFFFFFFFFFFF56
:200AC000FFFFFFFFFFFFFFFFFFFFFFFFFFFFFFFFFFFFFFFFFFFFFFFFFFFFFFFFFFFFFFFF36
:200AE000FFFFFFFFFFFFFFFFFFFFFFFFFFFFFFFFFFFFFFFFFFFFFFFFFFFFFFFFFFFFFFFF16
:200B0000809190008160809390008091A10082608093A1008091A10081608093A100809110
:200B2000A00081608093A000809121018260809321018091210181608093210180912001BC
:200B400081608093200180917A00846080937A0080917A00826080937A0080917A0081601E
:200B600080937A0080917A00806880937A001092C10060E086E32BDD60E087E328DD60E0E5
:200B800088E325DD60E089E322DD60E08AE31FDD60E08BE31CDD61E087E119DD61E089E1A3
:200BA00016DD61E08BE013DD61E08BE110DD61E08DE10DDD61E08AE00ADD61E08FE107DD4C
:200BC00061E081E204DD61E089E001DD61E083E2FEDC61E085E2FBDC61E088E0F8DCE0911B
:200BE0002F02F091300282E08083E0912B02F0912C021082E0912D02F0912E028FEC8083FE
:200C000010923702E0913302F091340286E08083E0913102F0913202808180618083E09184
:200C20003102F0913202808188608083E0913102F0913202808180688083E0913102F09176
:200C4000320280818F7D808387E3FDDC87E3FBDCEC0189E3F8DC88E3F6DC8C018BE3F3DC98
:200C6000CE01F0DD83E192E0DCDD80E192E0D9DDC801E8DD00351105F4F4C035D1050CF038
:200C800042C061E087E127DC60E089E124DC8BE0F9DC60E08DE11FDC61E08BE11CDC8AE004
:200CA000F1DC60E08FE117DC61E081E214DC89E0E9DC61E01FC00035110519F1C035D105C2
:200CC00004F560E087E107DC61E089E104DC8BE0D9DC60E08DE1FFDB61E08BE1FCDB8AE06F
:200CE000D1DC60E08FE1F7DB60E081E2F4DB89E0C9DC60E083E2EFDB60E085E2ECDB88E000
:200D0000C1DCB1DBA1CFC135D105DCF361E087E1E2DB60E089E1DFDB8BE0B4DC61E08DE12B
:200D2000DADB60E0DACFEFE1F2E01382128288EE93E0A0E0B0E084839583A683B78384E06B
:200D400092E09183808385EC90E09587848784EC90E09787868780EC90E0918B808B81EC87
:200D600090E0938B828B82EC90E0958B848B86EC90E0978B868B118E128E138E148E089597
:200D8000A1E21A2EAA1BBB1BFD010DC0AA1FBB1FEE1FFF1FA217B307E407F50720F0A21B2D
:200DA000B30BE40BF50B661F771F881F991F1A9469F760957095809590959B01AC01BD01C3
:200DC000CF010895EE0FFF1F881F8BBF0790F691E02D199481E090E0F89400C0F894FFCF4B
:200DE00000000000CC01490196017401880112020D0A002A0000FFFFFFFFFFFFFFFFFFFFFC
:200E00006A038111FCCF862F613208F080E291E090936A03909369032FEF209368031092F8
:200E20006703280F209366039093650390916503906D9093650390916403913061F4109219
:200E40006403909165039093BB009091BC0093FDF8CF95EC01C095EE9093BC0090916A035E
:200E60009130E1F390916703981710F480916703A4E4B3E02DE633E0F9019E2F921B9817C0
:200E800018F49D919193F9CF10926C0380936B0308952F923F924F925F926F927F928F9266
:200EA0009F92AF92BF92CF92DF92EF92FF92CF93DF93CDB7DEB728970FB6F894DEBF0FBE24
:200EC000CDBF81E08093430388E68093420310924103109240038091360490913704DC01B7
:200EE000ED91FC910190F081E02D6BE3199560E08091360490913704DDDD6EE070E080918C
:200F00003604909137047BDF8091360490913704DC01ED91FC910680F781E02D1995F82E73
:200F20008091360490913704DC01ED91FC910680F781E02D199520E030E03F2D822B932B82
:200F400090933904809338048091360490913704DC01ED91FC910680F781E02D1995F82E74
:200F60008091360490913704DC01ED91FC910680F781E02D199520E030E03F2D822B932B42
:200F800090933B0480933A048091360490913704DC01ED91FC910680F781E02D1995F82E30
:200FA0008091360490913704DC01ED91FC910680F781E02D199520E030E03F2D822B932B02
:200FC00090933D0480933C048091360490913704DC01ED91FC910680F781E02D1995F82EEC
:200FE0008091360490913704DC01ED91FC910680F781E02D199520E030E03F2D822B932BC2
:2010000090933F0480933E048091360490913704DC01ED91FC910680F781E02D1995F82EA7
:201020008091360490913704DC01ED91FC910680F781E02D199520E030E03F2D822B932B81
:2010400090934104809340048091360490913704DC01ED91FC910680F781E02D1995F82E63
:201060008091360490913704DC01ED91FC910680F781E02D199520E030E03F2D822B932B41
:2010800090934304809342048091360490913704DC01ED91FC910680F781E02D1995F82E1F
:2010A0008091360490913704DC01ED91FC910680F781E02D199560E070E07F2D3B01682ADE
:2010C000792A709245046092440460913E0470913F04072E000C880B990B79D720E030EF8A
:2010E00041E456E414D620E030E04AEA53E4D9D660935204709353048093540490935504F3
:201100006091380470913904072E000C880B990B5ED720E030E040E858E30E94C7104B017F
:201120005C016093560470935704809358049093590460913A0470913B04072E000C880B75
:20114000990B45D720E030E040E858E30E94C7106B017C0160935A0470935B0480935C04D4
:2011600090935D0460913C0470913D04072E000C880B990B2CD720E030E040E858E30E94E8
:20118000C7101B012C0160935E0470935F04809360049093610420E030E0A901C501B40140
:2011A000EBD7A501940118160CF05058C201B101AED59B01AC01C701B6011CD620E030E09E
:2011C00044EB53E4E4D720E030E040E05FE3DFD72BED3FE049E450E464D660937A04709380
:2011E0007B0480937C0490937D0420E030E0A901C701B601C1D7181624F0F7FAF094F7F8C2
:20120000F094A7019601C201B10181D59B01AC01C501B401EFD520E030E044EB53E4B7D7B4
:2012200020E030E040E05FEBB2D72BED3FE049E450E437D660937E0470937F048093800474
:20124000909381046091420470914304072E000C880B990BBCD620E030E043E852E421D6F5
:201260006B017C018091400490914104BC01990F880B990BACD620E030E043E852E411D654
:20128000209146043091470440914804509149043DD5609362047093630480936404909389
:2012A000650420914A0430914B0440914C0450914D04C701B6012AD560936604709367041A
:2012C0008093680490936904B301770C880B990B7ED620E030E043E852E4E3D520914E0411
:2012E00030914F0440915004509151040FD560936A0470936B0480936C0490936D042FB7CB
:20130000F89480913C0390913D03A0913E03B0913F032FBFC0909604D0909704E0909804BC
:20132000F0909904BC01CD016C197D098E099F094CD62FE632E143E85AE329D76B017C0120
:20134000609392047093930480939404909395042091620430916304409164045091650441
:2013600016D72B013C019B01AC0160916E0470916F048091700490917104C9D460936E04DA
:2013800070936F04809370049093710420916604309167044091680450916904C701B60167
:2013A000F6D64B015C019B01AC0160917204709173048091740490917504A9D46093720487
:2013C00070937304809374049093750420916A0430916B0440916C0450916D04C701B6010B
:2013E000D6D6209176043091770440917804509179048DD46D837E838F839887609376043F
:20140000709377048093780490937904C0909E04D0909F04E090A004F090A10480919A0442
:2014200090919B04A0919C04B0919D0489839A83AB83BC83209186043091870440918804BF
:2014400050918904C301B20162D49B01AC01C701B6019DD62B013C0120917A0430917B045E
:2014600040917C0450917D0469817A818B819C818ED69B01AC01C301B20149D460938604ED
:2014800070938704809388049093890420918A0430918B0440918C0450918D04C501B40192
:2014A00036D49B01AC01C701B60171D66B017C0120917E0430917F044091800450918104F8
:2014C00069817A818B819C8162D69B01AC01C701B6011DD460938A0470938B0480938C0457
:2014E00090938D048D819E81AF81B88580938E0490938F04A0939004B09391042FB7F89432
:2015000080913C0390913D03A0913E03B0913F032FBF8093960490939704A0939804B093BA
:20152000990428960FB6F894DEBF0FBECDBFDF91CF91FF90EF90DF90CF90BF90AF909F90A0
:201540008F907F906F905F904F903F902F9008951F93CF93DF93162F91E09093430398E642
:20156000909342031092410310924003C6E3D4E0A881B981ED91FC9111970190F081E02DB6
:20158000682FCD01199588819981DC01ED91FC910190F081E02D612F199561E0888199817C
:2015A000DF91CF911F9186CA90E0FC01E452FE4F4491FC01EA56FE4F2491FC01E05BFE4FD2
:2015C0009491992309F465C0442309F454C050E0FA013197E231F10508F04DC08827EE589A
:2015E000FF4F8F4F77C3809180008F7707C0809180008F7D03C080918000877F809380009D
:201600003AC084B58F7702C084B58F7D84BD33C08091B0008F7703C08091B0008F7D8093EC
:20162000B00029C0809190008F7707C0809190008F7D03C080919000877F809390001BC00E
:201640008091A0008F7707C08091A0008F7D03C08091A000877F8093A0000DC08091200123
:201660008F7707C0809120018F7D03C080912001877F80932001E92FF0E0EE0FFF1FEA5CE7
:20168000FE4FA591B4918FB7F894EC912E2B2C938FBF0895CF93DF93CDB7DEB72C970FB6BB
:2016A000F894DEBF0FBECDBF789484B5826084BD84B5816084BD85B5826085BD85B581606C
:2016C00085BD80916E00816080936E00109281008091810082608093810080918100816049
:2016E00080938100809180008160809380008091B10084608093B1008091B0008160809332
:20170000B000809191008260809391008091910081608093910080919000816080939000A5
:201720008091A10082608093A1008091A10081608093A1008091A00081608093A0008091C4
:201740002101826080932101809121018160809321018091200181608093200180917A0035
:20176000846080937A0080917A00826080937A0080917A00816080937A0080917A00806892
:2017800080937A001092C100E0919D03F0919E0382E08083E0919903F0919A031082E09193
:2017A0009B03F0919C038FEC80831092A503E091A103F091A20386E08083E0919F03F0916B
:2017C000A003808180618083E0919F03F091A003808188608083E0919F03F091A003808126
:2017E00080688083E0919F03F091A00380818F7D808310926C0310926B031092410310920E
:20180000400310926A0381E0809369031092640384E1CADE85E1C8DE8091B9008E7F80938A
:20182000B9008091B9008D7F8093B90088E48093B80085E48093BC0060E089E189DE60E08D
:201840008AE186DE68E08BE183DE60E08CE180DE61E08BE67DDE1DDB10926E0410926F046B
:2018600010927004109271041092720410927304109274041092750480917A0490917B04A6
:20188000A0917C04B0917D048093860490938704A0938804B093890480917E0490917F04C4
:2018A000A0918004B091810480938A0490938B04A0938C04B0938D042FB7F89480913C0301
:2018C00090913D03A0913E03B0913F032FBF8093960490939704A0939804B093990468EE54
:2018E00073E080E090E00E948B0280E292E03ED983E292E08DD98CE492E08AD985E692E04C
:2019000086D9C12CD12C760146015701260137011C861B8601E08B859C8568EE73E0A5D195
:20192000892B19F489E792E072D90093430328E620934203109241031092400380913604C4
:2019400090913704DC01ED91FC910190F081E02D63E4199560E08091360490913704AAD8D6
:2019600066E070E0809136049091370448DA8091360490913704DC01ED91FC910680F7817B
:20198000E02D1995182F8091360490913704DC01ED91FC910680F781E02D19951A831982C5
:2019A00069817A81682B792B8091360490913704DC01ED91FC910680F781E02D69877A8780
:2019C0001995182F8091360490913704DC01ED91FC910680F781E02D19951C831B822B81E2
:2019E0003C81282B392B38872F838091360490913704DC01ED91FC910680F781E02D1995BA
:201A0000182F8091360490913704DC01ED91FC910680F781E02D19951C0169857A85072EF8
:201A2000000C880B990BD3D220E030E043E852E438D29B01AC01C301B20169D12B013C01E0
:201A40002F813885B901330F880B990BC0D220E030E043E852E425D29B01AC01C501B40128
:201A600056D14B015C011E831D826D817E8162297329072E000C880B990BA9D220E030E03F
:201A800043E852E40ED29B01AC01C701B6013FD16B017C018B859C8501969C878B87883B84
:201AA0009B4009F038CF20E030E84BE355E4C301B201F7D1609346047093470480934804A3
:201AC0009093490420E030E84BE355E4C501B401E8D160934A0470934B0480934C049093CA
:201AE0004D0420E030E84BE355E4C701B601D9D160934E0470934F04809350049093510473
:201B000080E292E033D88BE792E082D889EA92E07ED8609146047091470480914804909168
:201B2000490460D984EB92E072D860914A0470914B0480914C0490914D0454D98FEB92E079
:201B400066D860914E0470914F04809150049091510448D981E892E05BD883E292E057D8A0
:201B600068EB7BE080E090E00E948B0292D984EA92E04DD8609186047091870480918804A4
:201B80009091890442E050D88EEA92E040D860918A0470918B0480918C0490918D0442E0C7
:201BA00043D889EB92E033D860918E0470918F04809190049091910415D90E942E02D6CF42
:201BC000EDE8F3E01382128288EE93E0A0E0B0E084839583A683B78324E032E0318320834C
:201BE00025EC30E03587248724EC30E03787268720EC30E0318B208B21EC30E0338B228BC7
:201C000022EC30E0358B248B26EC30E0378B268B118E128E138E148EEAE2F4E01382128257
:201C200084839583A683B78384E192E091838083F0933704E09336048AE097EDA3EABCE3AF
:201C400080939A0490939B04A0939C04B0939D0488E491EEAAE7BFE380939E0490939F04C1
:201C6000A093A004B093A104089597FB072E16F4009406D077FD08D035D007FC05D03EF472
:201C8000909581959F4F0895709561957F4F0895A1E21A2EAA1BBB1BFD010DC0AA1FBB1F44
:201CA000EE1FFF1FA217B307E407F50720F0A21BB30BE40BF50B661F771F881F991F1A94FD
:201CC00069F760957095809590959B01AC01BD01CF010895EE0FFF1F881F8BBF0790F691D2
:201CE000E02D1994AA1BBB1B51E107C0AA1FBB1FA617B70710F0A61BB70B881F991F5A95A7
:201D0000A9F780959095BC01CD0108955058BB27AA270ED0F7C1E8D130F0EDD120F031F404
:201D20009F3F11F41EF4B8C10EF4E095E7FBAEC1E92FF9D180F3BA1762077307840795073D
:201D400018F071F49EF511C20EF4E0950B2EBA2FA02D0B01B90190010C01CA01A001112445
:201D6000FF27591B99F0593F50F4503E68F11A16F040A22F232F342F4427585FF3CF4695D8
:201D800037952795A795F0405395C9F77EF41F16BA0B620B730B840BBAF09150A1F0FF0F97
:201DA000BB1F661F771F881FC2F70EC0BA0F621F731F841F48F4879577956795B795F79549
:201DC0009E3F08F0B3CF9395880F08F09927EE0F97958795089588D158F080E891E009F4DC
:201DE0009EEF89D128F040E851E059F45EEF09C053C1BBC1E92FE07896D168F3092E052A00
:201E0000C1F3261737074807590738F00E2E07F8E02569F0E025E0640AC0EF6307F800942B
:201E200007FADB01B9019D01DC01CA01AD01EF9347D068D10AD05F91552331F02BED3FE0AB
:201E400049E450FD49EC63CF0895DF93DD27B92FBF7740E85FE31616170648075B0710F408
:201E6000D92F8ED19F938F937F936F93F3D1E8E0F1E015D147D12F913F914F915F9193D174
:201E8000DD2349F09058A2EA2AED3FE049EC5FE3D0785D274DDFDF9135C1D4D008F481E089
:201EA00008950CD02FC127D140F01ED130F021F45F3F19F0EBC0511159C1EEC034D198F361
:201EC0009923C9F35523B1F3951B550BBB27AA2762177307840738F09F5F5F4F220F331FD6
:201EE000441FAA1FA9F333D00E2E3AF0E0E830D091505040E695001CCAF729D0FE2F27D003
:201F0000660F771F881FBB1F261737074807AB07B0E809F0BB0B802DBF01FF2793585F4F36
:201F20002AF09E3F510568F0B1C020C15F3FECF3983EDCF3869577956795B795F7959F5F8F
:201F4000C9F7880F911D9695879597F90895E1E0660F771F881FBB1F621773078407BA077C
:201F600020F0621B730B840BBA0BEE1F88F7E0950895E1D088F09F5790F0B92F9927B75115
:201F8000A0F0D1F0660F771F881F991F1AF0BA95C9F712C0B13081F0E8D0B1E00895E5C0BE
:201FA000672F782F8827B85F39F0B93FCCF3869577956795B395D9F73EF490958095709592
:201FC00061957F4F8F4F9F4F0895E89409C097FB3EF490958095709561957F4F8F4F9F4FFC
:201FE0009923A9F0F92F96E9BB279395F695879577956795B795F111F8CFFAF4BB0F11F45A
:2020000060FF1BC06F5F7F4F8F4F9F4F16C0882311F096E911C0772321F09EE8872F762FC0
:2020200005C0662371F096E8862F70E060E02AF09A95660F771F881FDAF7880F9695879584
:2020400097F90895990F0008550FAA0BE0E8FEEF16161706E807F907C0F012161306E407C1
:20206000F50798F0621B730B840B950B39F40A2661F0232B242B252B21F408950A2609F438
:20208000A140A6958FEF811D811D089597F99F6780E870E060E008959FEF80EC0895DF9399
:2020A000CF931F930F93FF92EF92DF927B018C01689405C0DA2EEF0176D0FE01E894A5912E
:2020C0002591359145915591AEF3EF0131DEFE019701A801DA9479F7DF90EF90FF900F91ED
:2020E0001F91CF91DF91089500240A941616170618060906089500240A94121613061406D1
:2021000005060895092E0394000C11F4882352F0BB0F40F4BF2B11F460FF04C06F5F7F4F9F
:202120008F4F9F4F089557FD9058440F551F59F05F3F71F04795880F97FB991F61F09F3FFF
:2021400079F087950895121613061406551FF2CF4695F1DF08C0161617061806991FF1CF7B
:2021600086957105610508940895E894BB2766277727CB0197F9089565DF08F48FEF089552
:202180009B01AC0160E070E080E89FE38ACE0BD0B9CFAADF28F0AFDF18F0952309F076CF94
:2021A0007BCF1124E3CFBFDFA0F3959FD1F3950F50E0551F629FF001729FBB27F00DB11DCD
:2021C000639FAA27F00DB11DAA1F649F6627B00DA11D661F829F2227B00DA11D621F739F90
:2021E000B00DA11D621F839FA00D611D221F749F3327A00D611D231F849F600D211D822FFC
:20220000762F6A2F11249F5750408AF0E1F088234AF0EE0FFF1FBB1F661F771F881F9150FD
:202220005040A9F79E3F510570F030CF9FCF5F3FECF3983EDCF3869577956795B795F79551
:20224000E7959F5FC1F7FE2B880F911D9695879597F908959B01AC019ACFF4DE880B990BAF
:20226000089581E090E0F89400C0F894FFCF00000000C701440191016F0183010D020000A8
:2022800000005003210319030503F602F5020D0A003D3D3D3D3D3D3D3D3D3D3D3D3D3D3D0A
:2022A0003D3D3D3D3D3D3D3D3D3D3D3D3D3D3D3D3D3D3D3D3D3D3D3D3D0043616C63756CD5
:2022C0006174696E67206779726F206F66667365747300444F204E4F54204D4F5645204D88
:2022E000505536303530002E00446F6E65210050726F6772616D2077696C6C20737461720F
:20230000742061667465722033207365636F6E647300616E676C6558203A200009616E679D
:202320006C6559203A200009616E676C655A203A20006E616E00696E66006F766600FFFF52
:20234000FFFFFFFFFFFFFFFFFFFFFFFFFFFFFFFFFFFFFFFFFFFFFFFFFFFFFFFFFFFFFFFF9D
:20236000FFFFFFFFFFFFFFFFFFFFFFFFFFFFFFFFFFFFFFFFFFFFFFFFFFFFFFFFFFFFFFFF7D
:20238000FFFFFFFFFFFFFFFFFFFFFFFFFFFFFFFFFFFFFFFFFFFFFFFFFFFFFFFFFFFFFFFF5D
:2023A000FFFFFFFFFFFFFFFFFFFFFFFFFFFFFFFFFFFFFFFFFFFFFFFFFFFFFFFFFFFFFFFF3D
:2023C000FFFFFFFFFFFFFFFFFFFFFFFFFFFFFFFFFFFFFFFFFFFFFFFFFFFFFFFFFFFFFFFF1D
:2023E000FFFFFFFFFFFFFFFFFFFFFFFFFFFFFFFFFFFFFFFFFFFFFFFFFFFFFFFFFFFFFFFFFD
:2024000065747300444F204E4F54204D4F5645204D505536303530002E00446F6E652100C3
:2024200050726F6772616D2077696C6C2073746172742061667465722033207365636F6EE1
:202440006473003D3D3D3D3D3D3D3D3D3D3D3D3D3D3D3D3D3D3D3D3D3D3D3D3D3D3D3D3DBC
:202460003D3D3D3D3D3D3D3D3D3D3D3D3D3D3D3D3D3D3D3D3D3D3D3D3D3D0074656D702054
:202480003A200061636358203A20000961636359203A2000096163635A203A200067797290
:2024A0006F58203A2000096779726F59203A2000096779726F5A203A2000616363416E6763
:2024C0006C6558203A200009616363416E676C6559203A20006779726F416E676C6558204F
:2024E0003A2000096779726F416E676C6559203A2000096779726F416E676C655A203A2079
:2025000000616E676C6558203A200009616E676C6559203A200009616E676C655A203A201B
:20252000003D3D3D3D3D3D3D3D3D3D3D3D3D3D3D3D3D3D3D3D3D3D3D3D3D3D3D3D3D3D3D38
:202540003D3D3D3D3D3D3D3D3D3D3D3D3D3D3D3D3D3D3D3D3D3D3D3D0A006E616E00696EA5
:2025600066006F766600FFFFFFFFFFFFFFFFFFFFFFFFFFFFFFFFFFFFFFFFFFFFFFFFFFFFC4
:20258000FFFFFFFFFFFFFFFFFFFFFFFFFFFFFFFFFFFFFFFFFFFFFFFFFFFFFFFFFFFFFFFF5B
:2025A000FFFFFFFFFFFFFFFFFFFFFFFFFFFFFFFFFFFFFFFFFFFFFFFFFFFFFFFFFFFFFFFF3B
:2025C000FFFFFFFFFFFFFFFFFFFFFFFFFFFFFFFFFFFFFFFFFFFFFFFFFFFFFFFFFFFFFFFF1B
:2025E000FFFFFFFFFFFFFFFFFFFFFFFFFFFFFFFFFFFFFFFFFFFFFFFFFFFFFFFFFFFFFFFFFB
:20260000F8948C91209582238C939FBF08959FB7F8948C91822B8C939FBF0895893009F421
:2026200048C08A30A0F4843049F1853040F4823071F18330F8F4813009F062C025C0873052
:2026400071F1883090F5863009F05AC024C08D3009F441C08E3028F48B30A9F18C30B8F5DB
:202660002CC08F3009F441C08F30D8F1803109F047C041C0809180008F7703C0809180008C
:202680008F7D80938000089584B58F7702C084B58F7D84BD08958091B0008F7703C080913F
:2026A000B0008F7D8093B0000895809190008F7707C0809190008F7D03C080919000877F79
:2026C0008093900008958091A0008F7707C08091A0008F7D03C08091A000877F8093A00052
:2026E0000895809120018F7703C0809120018F7D80932001089580912001877F80932001C7
:202700000895FF920F931F93F62E482F50E0CA0182549E4FFC012491CA0188589E4FFC0197
:2027200014914E5C5E4FFA0104910023D9F0222319F0822F0E940E13E02FF0E0EE0FFF1F65
:20274000E250FF4FA591B491FF2031F49FB7F8948C911095812304C09FB7F8948C91812B83
:202760008C939FBF1F910F91FF9008950F931F93482F50E0CA0182549E4FFC012491CA015A
:2027800088589E4FFC0104914E5C5E4FFA011491112319F420E030E015C0222319F0822FBE
:2027A0000E940E13812F90E0880F991F885E9E4FFC01A591B4918C9120E030E0802311F0CB
:2027C00021E030E0C9011F910F9108951F920F920FB60F920BB60F9211242F933F934F936C
:2027E0008F939F93EF93FF934091C600E091D405F091D50531969F012F77307031978091AF
:20280000D6059091D7052817390739F0EC5AFA4F40833093D5052093D405FF91EF919F917D
:202820008F914F913F912F910F900BBE0F900FBE0F901F9018951F920F920FB60F920BB6C0
:202840000F9211242F933F934F938F939F93EF93FF934091CE00E0915806F09159063196AF
:202860009F012F773070319780915A0690915B062817390739F0E852FA4F408330935906A7
:2028800020935806FF91EF919F918F914F913F912F910F900BBE0F900FBE0F901F90189588
:2028A0001F920F920FB60F920BB60F9211242F933F934F938F939F93EF93FF934091D60044
:2028C000E091DC06F091DD0631969F012F77307031978091DE069091DF062817390739F029
:2028E000E45AF94F40833093DD062093DC06FF91EF919F918F914F913F912F910F900BBE1C
:202900000F900FBE0F901F9018951F920F920FB60F920BB60F9211242F933F934F938F9369
:202920009F93EF93FF9340913601E0916007F091610731969F012F77307031978091620799
:20294000909163072817390739F0E052F94F40833093610720936007FF91EF919F918F9162
:202960004F913F912F910F900BBE0F900FBE0F901F901895CF93DF93EC019A01AB01E885A3
:20298000F985203081EE380780E0480780E0580709F449C081E090E00A8802C0880F991FD3
:2029A0000A94E2F7808360E079E08DE390E00E9440182150304040405040CA01B90122E0B2
:2029C00030E040E050E00E944018EC81FD813083EE81FF812083EA85FB85208141E050E08C
:2029E000CA010E8402C0880F991F0A94E2F7282B2083EA85FB852081CA010F8402C0880FB5
:202A0000991F0A94E2F7282B2083EA85FB858081088802C0440F551F0A94E2F7842B80835F
:202A2000DF91CF910895108220E130E0CECFDC011296ED91FC911397E058FF4F21913191B5
:202A400080819181281B390B2F773070C9010895DC011296ED91FC911397EE57FF4F2081C1
:202A6000318192918291E058F0408217930719F42FEF3FEF05C0E20FF31F8081282F30E04A
:202A8000C9010895DC011296ED91FC911397DF01AE57BF4F2D913C911197E058FF4F8081E8
:202AA0009181E058F0408217930719F42FEF3FEF0BC0E20FF31F80812F5F3F4F2F773070DF
:202AC0002D933C93282F30E0C9010895DC011296ED91FC911397EE57FF4F80819181929394
:202AE00082930895FC01A085B18521898C9190E0022E02C0959587950A94E2F780FFF6CFA2
:202B00000484F585E02D6083089520EE32E0309365072093640784E595E090936707809337
:202B2000660785EC90E0909369078093680784EC90E090936B0780936A0780EC90E090933A
:202B40006D0780936C0781EC90E090936F0780936E0786EC90E09093710780937007E4E0B2
:202B6000E093720773E07093730767E06093740755E05093750741E040937607309378079D
:202B80002093770788ED95E090937A07809379078DEC90E090937C0780937B078CEC90E0D7
:202BA00090937E0780937D0788EC90E09093800780937F0789EC90E0909382078093810783
:202BC0008EEC90E09093840780938307E093850770938607609387075093880740938907DB
:202BE00030938B0720938A078CE596E090938D0780938C0785ED90E090938F0780938E07B5
:202C000084ED90E0909391078093900780ED90E0909393078093920781ED90E0909395078B
:202C20008093940786ED90E09093970780939607E09398077093990760939A0750939B07C4
:202C400040939C0730939E0720939D0780EE96E09093A00780939F0785E391E09093A20733
:202C60008093A10784E391E09093A4078093A30780E391E09093A6078093A50781E391E0FE
:202C80009093A8078093A70786E391E09093AA078093A907E093AB077093AC076093AD07AE
:202CA0005093AE074093AF0708950E9477110E949D0C0E943510FDCF0F931F93CF93DF9306
:202CC0008C01EB0109C02196D801ED91FC910190F081E02DC801199568816623A1F7DF9117
:202CE000CF911F910F910895EF92FF920F931F93CF93DF938C017B01EA010CC0D7016D91B7
:202D00007D01D801ED91FC910190F081E02DC80119952197209791F7DF91CF911F910F91B4
:202D2000FF90EF9008952F923F924F925F926F927F928F929F92AF92BF92CF92DF92EF923B
:202D4000FF920F931F93DF93CF93CDB7DEB7A0970FB6F894DEBF0FBECDBF1C016A017B011F
:202D6000411551056105710549F440E350E060E070E020E030E00E944E1756C08824992415
:202D80005401422E55246624772401E010E00C0F1D1F080D191DC701B601A30192010E9405
:202DA0001E18F80160830894811C911CA11CB11CC701B601A30192010E941E18C901DA015E
:202DC0006C017D01C114D104E104F104F1F681E0E82EF12CEC0EFD1EE80CF91C3E01089410
:202DE000611C711CD501C4010197A109B1096C01C818D90816C0F601EE0DFF1D40814A30E5
:202E000010F4405D01C0495C552747FD5095652F752FC10120E030E00E944E170894E10870
:202E2000F1086E147F0439F7A0960FB6F894DEBF0FBECDBFCF91DF911F910F91FF90EF90B9
:202E4000DF90CF90BF90AF909F908F907F906F905F904F903F902F900895DC012115310578
:202E600041F4ED91FC910190F081E02D642F199508950E9493160895EF92FF920F931F93D7
:202E80009A01E62EFF2400E010E0B801A7010E942D171F910F91FF90EF900895EF92FF923C
:202EA0000F931F93CF93DF93EC017A018B012115310541F4E881F9810190F081E02D642FD0
:202EC00019951BC02A303105B1F477FF10C04DE250E060E070E020E030E00E944E17109543
:202EE0000095F094E094E11CF11C011D111DCE01B801A7012AE00E949316DF91CF911F91EA
:202F00000F91FF90EF900895EF92FF920F931F937B019A010027F7FC0095102FB801A7019A
:202F20000E944E171F910F91FF90EF9008952F923F924F925F926F927F928F929F92AF9286
:202F4000BF92CF92DF92EF92FF920F931F93DF93CF93CDB7DEB73B014C0119012A016E8936
:202F60007F89888D998D6A197B098C099D09621A730A840A950AA40193010E94E017E218DA
:202F8000F30804091509A80197010E9440182A0D3B1D4C1D5D1DB901CA01CF91DF911F9159
:202FA0000F91FF90EF90DF90CF90BF90AF909F908F907F906F905F904F903F902F900895B2
:202FC000629FD001739FF001829FE00DF11D649FE00DF11D929FF00D839FF00D749FF00DA5
:202FE000659FF00D9927729FB00DE11DF91F639FB00DE11DF91FBD01CF0111240895991B43
:2030000079E004C0991F961708F0961B881F7A95C9F78095089597FB092E07260AD077FD19
:2030200004D049D006D000201AF4709561957F4F0895F6F7909581959F4F0895A1E21A2EBB
:20304000AA1BBB1BFD010DC0AA1FBB1FEE1FFF1FA217B307E407F50720F0A21BB30BE40B68
:20306000F50B661F771F881F991F1A9469F760957095809590959B01AC01BD01CF01089520
:2030800097FB092E05260ED057FD04D0D7DF0AD0001C38F450954095309521953F4F4F4FFD
:2030A0005F4F0895F6F790958095709561957F4F8F4F9F4F0895AA1BBB1B51E107C0AA1F0F
:2030C000BB1FA617B70710F0A61BB70B881F991F5A95A9F780959095BC01CD010895EE0FCB
:2030E000FF1F0590F491E02D1994F894FFCF2E63707000536572766F206F6E6C79206F6E25
:203100002070696E732066726F6D203220746F20313300493243206D6F6465206E6F742014
:2031200079657420737570706F7274656400556E6B6E6F776E2070696E206D6F6465004ECD
:203140006F7420656E6F7567682064617461002F7661722F666F6C646572732F714D2F7109
:203160004D625253563343325261522D452B42597048425A2B2B2B2B544D2F2D546D702D65
:203180002F6275696C64373137303932333031373631393339383432352E746D702F537497
:2031A000616E646172644669726D6174615F325F325F666F72554E4F5F305F332E63707095
:2031C000002000B40700001300010000000072155C1674161715421566152815FFFFFFFF46
:2031E000FFFFFFFFFFFFFFFFFFFFFFFFFFFFFFFFFFFFFFFFFFFFFFFFFFFFFFFFFFFFFFFFEF
:20320000FFFFFFFFFFFFFFFFFFFFFFFFFFFFFFFFFFFFFFFFFFFFFFFFFFFFFFFFFFFFFFFFCE
:20322000FFFFFFFFFFFFFFFFFFFFFFFFFFFFFFFFFFFFFFFFFFFFFFFFFFFFFFFFFFFFFFFFAE
:20324000FFFFFFFFFFFFFFFFFFFFFFFFFFFFFFFFFFFFFFFFFFFFFFFFFFFFFFFFFFFFFFFF8E
:020000040003F7
:20E000000D9489F10D94B2F10D94B2F10D94B2F10D94B2F10D94B2F10D94B2F10D94B2F109
:20E020000D94B2F10D94B2F10D94B2F10D94B2F10D94B2F10D94B2F10D94B2F10D94B2F1C0
:20E040000D94B2F10D94B2F10D94B2F10D94B2F10D94B2F10D94B2F10D94B2F10D94B2F1A0
:20E060000D94B2F10D94B2F10D94B2F10D94B2F10D94B2F10D94B2F10D94B2F10D94B2F180
:20E080000D94B2F10D94B2F10D94B2F10D94B2F10D94B2F10D94B2F10D94B2F10D94B2F160
:20E0A0000D94B2F10D94B2F10D94B2F10D94B2F10D94B2F10D94B2F10D94B2F10D94B2F140
:20E0C0000D94B2F10D94B2F10D94B2F10D94B2F10D94B2F10D94B2F10D94B2F10D94B2F120
:20E0E0000D94B2F141546D656761323536300041726475696E6F206578706C6F726572205D
:20E1000073746B3530305632206279204D4C5300426F6F746C6F616465723E004875683FDC
:20E1200000436F6D70696C6564206F6E203D20004350552054797065202020203D20005F52
:20E140005F4156525F415243485F5F3D2000415652204C696243205665723D200047434305
:20E160002056657273696F6E203D20004350552049442020202020203D20004C6F772066B2
:20E18000757365202020203D20004869676820667573652020203D200045787420667573A6
:20E1A00065202020203D20004C6F636B20667573652020203D20004D6172202037203230EB
:20E1C000313300312E362E3800342E332E35005623202020414444522020206F7020636FC3
:20E1E00064652020202020696E737472756374696F6E2061646472202020496E7465727265
:20E20000757074006E6F20766563746F7200726A6D702020006A6D70200057686174207091
:20E220006F72743A00506F7274206E6F7420737570706F72746564004D7573742062652083
:20E2400061206C65747465720020005772697474696E672045450052656164696E6720456C
:20E26000450045452065727220636E743D00504F525400303D5A65726F2061646472003F78
:20E280003D43505520737461747300403D454550524F4D207465737400423D426C696E6B76
:20E2A000204C454400453D44756D7020454550524F4D00463D44756D7020464C41534800C2
:20E2C000483D48656C70004C3D4C69737420492F4F20506F72747300513D51756974005269
:20E2E0003D44756D702052414D00563D73686F7720696E7465727275707420566563746FC9
:20E30000727300593D506F727420626C696E6B002A0011241FBECFEFD1E2DEBFCDBF01E0F6
:20E320000CBF12E0A0E0B2E0EEE1FDEF03E00BBF02C007900D92A030B107D9F712E0A0E0E4
:20E34000B2E001C01D92AE30B107E1F70F9460F30D948DFE01E20EBF0FEF0DBF11241FBE9F
:20E360000D9460F30D9400F020E030E040ED57E005C0FA013197F1F72F5F3F4F2817390799
:20E38000C0F308959C01260F311DC901A0E0B0E02F5F3F4FABBFFC018791882361F0809389
:20E3A000C6008091C00086FFFCCF8091C00080648093C000EACF08958DE08093C600809141
:20E3C000C00086FFFCCF8091C00080648093C0008AE08093C6008091C00086FFFCCF809130
:20E3E000C00080648093C00008950F94C2F10F94DCF10895FC019081992359F09093C600AA
:20E400008091C00086FFFCCF8091C00080648093C0003196992379F70895282F982F92957E
:20E420009F70892F805D8A3308F0895F8093C6008091C00086FFFCCF8091C00080648093D9
:20E44000C000822F8F70982F905D9A3308F0995F9093C6008091C00086FFFCCF8091C00000
:20E4600080648093C00008959C01FB01853691051CF46330710594F0C90164E670E00F94BA
:20E480002EFE605D7F4F6093C6008091C00086FFFCCF8091C00080648093C0002B303105D2
:20E4A00014F43297B4F0C90164E670E00F942EFE6AE070E00F942EFE605D7F4F6093C60007
:20E4C0008091C00086FFFCCF8091C00080648093C000C9016AE070E00F942EFEC0968093F7
:20E4E000C6008091C00086FFFCCF8091C00080648093C00008951F93182F8EE692EE60E0E3
:20E500000F94C2F11093C6008091C00086FFFCCF8091C00080648093C0000F94DCF11F9173
:20E5200008952F923F924F925F926F927F928F929F92AF92BF92CF92DF92EF92FF920F935E
:20E540001F93DF93CF93CDB7DEB762970FB6F894DEBF0FBECDBF382E622ECA01DB015C01E2
:20E560006D01772420E2222E2E010894411C511C8BC081E0A81680E0B80681E0C80680E094
:20E58000D80628F0C601AA27BB270F940DF2BB27AD2D9C2D8B2D0F940DF28A2D0F940DF231
:20E5A0002092C6008091C00086FFFCCF8091C00080648093C0009DE29093C6008091C00001
:20E5C00086FFFCCF8091C00080648093C0002092C6008091C00086FFFCCF8091C000806415
:20E5E0008093C00019828601750188249924A1E03A1651F03A1620F0B2E03B1661F409C0D4
:20E600000BBFF701779007C0C7010F9477FE782E02C0F7017080872D0F940DF22092C6006C
:20E620008091C00086FFFCCF8091C00080648093C000872D8052F401EF70F0708F3520F41F
:20E64000E40DF51D708204C0E40DF51D8EE280830894E11CF11C011D111D0894811C911CB3
:20E6600090E18916910409F0C2CF80E190E0A0E0B0E0A80EB91ECA1EDB1E198AC2010F9413
:20E68000FAF10F94DCF16A94662009F072CF62960FB6F894DEBF0FBECDBFCF91DF911F91A2
:20E6A0000F91FF90EF90DF90CF90BF90AF909F908F907F906F905F904F903F902F900895FB
:20E6C0002F923F924F925F926F927F928F929F92AF92BF92CF92DF92EF92FF920F931F93A8
:20E6E000DF93CF93CDB7DEB7CD53D1400FB6F894DEBF0FBECDBF01E20EBF0FEF0DBF94B7F0
:20E70000F894A89514BE8091600088618093600010926000789493FF05C0E0910002F09138
:20E7200001021995279A2F9A8091C00082608093C00080E18093C40088E18093C1000000A3
:20E74000EE24FF24870144E0A42EB12CCC24DD2424C0C5010197F1F70894E11CF11C011D4A
:20E76000111D21E2E2162EE4F20620E0020720E0120718F031E0C32ED12CC801B70127ECA9
:20E780003BE140E050E00F9441FE611571058105910519F485B1805885B98091C00087FD75
:20E7A00003C0C114D104A9F2A6014F5F5F4FC25EDE4F59834883CE51D140C25EDE4F8881D4
:20E7C0009981CE51D140019711F00D9410FEC05DDE4F19821882C053D14060E0C15DDE4F79
:20E7E0001882CF52D14088249924C35DDE4F19821882CD52D140C05EDE4F188219821A8216
:20E800001B82C052D140CE5CDE4F188219821A821B82C253D140EE24FF2487010BBFF701CE
:20E8200007911691C45CDE4F19830883CC53D1400D940BFEC25EDE4F28813981CE51D1406B
:20E840002130310509F52091C600C25EDE4F19821882CE51D14022C02F5F3F4F4F4F5F4FC0
:20E86000213082E138078AE7480780E0580780F0C45CDE4FE881F981CC53D140EF5FFF4FBA
:20E8800019F0EE27FF27099420E030E040E050E08091C00087FFE0CF2091C600C35DDE4F6D
:20E8A00048815981CD52D1404F5F5F4FC35DDE4F59834883CD52D140213209F063C64A3016
:20E8C000510508F05FC60894811C911C53E08516910409F059C600E010E018C081E2809346
:20E8E000C6008091C00086FFFCCF8091C00080648093C0002F5F3F4F2931310579F70F94EA
:20E90000DCF10F5F1F4F0530110519F020E030E0E5CF10920A0210920B0210920C02109287
:20E920000D0210920602109207021092080210920902109202021092030210920402109283
:20E9400005028FEE90EE60E00F94F5F180E191EE60E00F94C2F18091C00087FFFCCF909133
:20E96000C600903608F09F759032B8F09093C6008091C00086FFFCCF8091C00080648093C3
:20E98000C000A0E2A093C6008091C00086FFFCCF8091C00080648093C000983409F4D7C132
:20E9A0009934B8F4923409F459C1933458F4903319F1903308F4E3C59F33A1F1903409F099
:20E9C000DEC5BDC0953409F470C1963409F0D7C598C1923509F42BC2933538F49C3409F4F6
:20E9E000F5C1913509F0CBC518C2963509F445C2993509F0C4C567C483E792EE62E00F941F
:20EA0000F5F11092060210920702109208021092090210920A0210920B0210920C021092B3
:20EA20000D0213C18FE792EE62E00F94F5F18FEE90EE60E00F94F5F181E291EE60E00F94A9
:20EA4000C2F187EB91EE60E00F94F5F180E391EE60E00F94C2F184EE90EE60E00F94F5F118
:20EA60008FE391EE60E00F94C2F186E090E061E070E00F9434F20F94DCF18DE591EE60E03E
:20EA80000F94C2F189EC91EE60E00F94F5F18EE491EE60E00F94C2F183EC91EE60E00F940B
:20EAA000F5F18CE691EE60E00F94C2F18EE10F940DF288E90F940DF281E00F940DF20F941F
:20EAC000DCF18BE791EE60E00F94C2F119E0E0E0F0E010935700E4918E2F0F940DF20F94E8
:20EAE000DCF18AE891EE60E00F94C2F1E3E0F0E010935700E4918E2F0F940DF20F94DCF1F1
:20EB000089E991EE60E00F94C2F1E2E0F0E010935700E4918E2F0F940DF20F94DCF188EA2C
:20EB200091EE60E00F94C2F1E1E0F0E0109357001491812F0F940DF20F94DCF107CF8BE885
:20EB400092EE62E00F94F5F18BE492EE60E00F94F5F10F94DCF100E010E019C0C8016F2D34
:20EB60000F947FFEFF2031F489E492EE60E00F94C2F10BC0F092C6008091C00086FFFCCF7A
:20EB80008091C00080648093C0000F5F1F4FC80181519F41A0E0B0E0ABBFFC01F790BAE2FC
:20EBA000FB1621F0E2E000301E07C1F60F94DCF10F94DCF187E592EE60E00F94F5F10F942D
:20EBC000DCF1CC24DD2400E010E01EC0C8010F9477FEF82E882331F489E492EE60E00F9422
:20EBE000C2F10BC08093C6008091C00086FFFCCF8091C00080648093C000FE1419F008945E
:20EC0000C11CD11C0F5F1F4FC80181519F41A0E0B0E0ABBFFC01E790FAE2EF1621F022E0F1
:20EC20000030120799F60F94DCF10F94DCF182E692EE60E00F94C2F1C60161E070E00F94A3
:20EC400034F20F94DCF10F94DCF11092020210920302109204021092050278CE89E992EED8
:20EC600062E00F94F5F1279A2F9A16C02F9880E090E0E0EDF7E03197F1F701968436910597
:20EC8000C1F72F9A80E090E0E0EDF7E03197F1F7019684369105C1F78091C00087FFE6CF24
:20ECA0008091C00087FFFCCF64C485EA92EE62E00F94F5F14091020250910302609104029E
:20ECC0007091050281E020E10F9491F28091020290910302A0910402B091050280509F4F2C
:20ECE000AF4FBF4F8093020290930302A0930402B093050280509041A040B04008F426CEE5
:20ED0000A4CF83EB92EE62E00F94F5F14091060250910702609108027091090280E020E19C
:20ED20000F9491F28091060290910702A0910802B091090280509F4FAF4FBF4F80930602FE
:20ED400090930702A0930802B0930902FFCD80EC92EE62E00F94F5F183E792EE60E00F94AC
:20ED6000F5F18FE792EE60E00F94F5F18BE892EE60E00F94F5F189E992EE60E00F94F5F177
:20ED800085EA92EE60E00F94F5F183EB92EE60E00F94F5F180EC92EE60E00F94F5F187ECDC
:20EDA00092EE60E00F94F5F188ED92EE60E00F94F5F18FED92EE60E00F94F5F18AEE92EE8F
:20EDC00060E00F94F5F183E093EEBDCD87EC92EE62E00F94F5F181E40F947BF282E40F94C0
:20EDE0007BF283E40F947BF284E40F947BF285E40F947BF286E40F947BF287E40F947BF249
:20EE000088E40F947BF28AE40F947BF28BE40F947BF28CE40F947BF299CD88ED92EE62E05C
:20EE20000F94F5F1772473948824992409C48FED92EE62E00F94F5F140910A0250910B02DF
:20EE400060910C0270910D0282E020E10F9491F280910A0290910B02A0910C02B0910D0240
:20EE600080509F4FAF4FBF4F80930A0290930B02A0930C02B0930D0269CD8AEE92EE62E076
:20EE80000F94F5F184EE90EE60E00F94F5F18FEC91EE60E00F94F5F1662477244301CC5DDB
:20EEA000DE4F19821882C452D140D401C301B695A79597958795CA5DDE4F88839983AA83B9
:20EEC000BB83C652D140CC5DDE4FA881B981C452D1401196CC5DDE4FB983A883C452D14060
:20EEE000CD0162E070E00F9434F2B0E2B093C6008091C00086FFFCCF8091C0008064809365
:20EF0000C000EDE2E093C6008091C00086FFFCCF8091C00080648093C000F0E2F093C60065
:20EF20008091C00086FFFCCF8091C00080648093C000CA5DDE4FE880F9800A811B81C652B4
:20EF4000D140BB27A12F902F8F2D0F940DF2CA5DDE4F8881C652D1400F940DF2B0E2FB2EEE
:20EF6000F092C6008091C00086FFFCCF8091C00080648093C0000DE30093C6008091C00086
:20EF800086FFFCCF8091C00080648093C00010E21093C6008091C00086FFFCCF8091C0004C
:20EFA00080648093C0008BBEF3012791C65DDE4F2883CA52D140A22EBB24CC24DD24089441
:20EFC000611C711C811C911C8BBEF3018791282E3324442455240894611C711C811C911C0A
:20EFE0008BBEF3013791C55DDE4F3883CB52D1400894611C711C811C911C8BBEF3014791CF
:20F00000C45DDE4F4883CC52D140ADEFEA2EAFEFFA2EAFEF0A2FAFEF1A2F6E0C7F1C801EBD
:20F02000911E142D032DF22CEE24EA0CFB1C0C1D1D1D0F940DF220E22093C6008091C00022
:20F0400086FFFCCF8091C00080648093C000C65DDE4F8881CA52D1400F940DF230E23093DB
:20F06000C6008091C00086FFFCCF8091C00080648093C000C45DDE4F8881CC52D1400F94F8
:20F080000DF240E24093C6008091C00086FFFCCF8091C00080648093C000C55DDE4F8881B5
:20F0A000CB52D1400F940DF250E25093C6008091C00086FFFCCF8091C00080648093C000FC
:20F0C0008FEFE8168FEFF80680E0080780E0180731F484E092EE60E00F94C2F1DFC0D80133
:20F0E000C7018070907CA070B0708050904CA040B040D1F52FEF3FE340E050E0E222F32231
:20F1000004231523CA5DDE4FA880B980CA80DB80C652D140AE0CBF1CC01ED11EAA0CBB1C1E
:20F12000CC1CDD1C8EE092EE60E00F94C2F1BB27A12F902F8F2D0F940DF28E2D0F940DF23E
:20F1400030E23093C6008091C00086FFFCCF8091C00080648093C0004EE34093C600809190
:20F16000C00086FFFCCF87C08EE09EEFA0E0B0E0E822F9220A231B239CE0E91694E9F906A6
:20F1800090E0090790E0190709F088C0C45DDE4FA881CC52D140EA2EFF2400E010E0102F2E
:20F1A0000F2DFE2CEE24C55DDE4FB881CB52D140EB0EF11C011D111DD601C5018170907041
:20F1C000A070B070DC0199278827E80EF91E0A1F1B1F20EF30E040E050E0A222B322C42255
:20F1E000D52241E1AA0CBB1CCC1CDD1C4A95D1F7EA0CFB1C0C1D1D1D81E090E0A0E0B0E090
:20F20000282239224A225B2235E1220C331C441C551C3A95D1F7E20CF31C041D151D5701BD
:20F220006801AA0CBB1CCC1CDD1C85E192EE60E00F94C2F1C801AA27BB270F940DF2BB277B
:20F24000A12F902F8F2D0F940DF28E2D0F940DF290E29093C6008091C00086FFFCCF8091D7
:20F26000C00080648093C000AEE3A093C6008091C00086FFFCCF8091C00080648093C000E4
:20F28000C601AA27BB270F940DF2BB27AD2D9C2D8B2D0F940DF28A2D0F940DF20F94DCF1AA
:20F2A000CC5DDE4FE881F981C452D140F99709F44DCBF4E0EF2EF12C012D112D6E0C7F1CBA
:20F2C000801E911EF2CD83E093EE62E00F94F5F18AE192EE60E00F94C2F18091C00087FF9B
:20F2E000FCCF1091C6001F751093C6008091C00086FFFCCF8091C00080648093C0000F9493
:20F30000DCF1812F81548A3108F036C1163409F495C0173490F4133409F44EC0143430F4C8
:20F320001134F1F0123409F01DC130C0143409F459C0153409F016C16BC01A3409F4C4C029
:20F340001B3438F4173409F48FC0183409F00AC1A1C01B3409F4D2C01C3409F003C1E8C097
:20F360008FEF81B90DC082B1809582B980E090E0E0EDF7E03197F1F70196883C9105C1F7B8
:20F380008091C00087FFEFCF12B8EFC08FEF84B90DC085B1809585B980E090E0E0EDF7E05A
:20F3A0003197F1F70196883C9105C1F78091C00087FFEFCF15B8D9C08FEF87B90DC088B1B5
:20F3C000809588B980E090E0E0EDF7E03197F1F70196883C9105C1F78091C00087FFEFCFF5
:20F3E00018B8C3C08FEF8AB90DC08BB180958BB980E090E0E0EDF7E03197F1F70196883C18
:20F400009105C1F78091C00087FFEFCF1BB8ADC08FEF8DB90DC08EB180958EB980E090E04D
:20F42000E0EDF7E03197F1F70196883C9105C1F78091C00087FFEFCF1EB897C08FEF80BBD4
:20F440000DC081B3809581BB80E090E0E0EDF7E03197F1F70196883C9105C1F78091C000BC
:20F4600087FFEFCF11BA81C08FEF83BB0DC084B3809584BB80E090E0E0EDF7E03197F1F704
:20F480000196883C9105C1F78091C00087FFEFCF14BA6BC08FEF809301010FC0809102013F
:20F4A00080958093020180E090E0E0EDF7E03197F1F70196883C9105C1F78091C00087FFFD
:20F4C000EDCF1092020151C08FEF809304010FC08091050180958093050180E090E0E0ED73
:20F4E000F7E03197F1F70196883C9105C1F78091C00087FFEDCF1092050137C08FEF809399
:20F5000007010FC08091080180958093080180E090E0E0EDF7E03197F1F70196883C9105B4
:20F52000C1F78091C00087FFEDCF109208011DC08FEF80930A010FC080910B0180958093C8
:20F540000B0180E090E0E0EDF7E03197F1F70196883C9105C1F78091C00087FFEDCF10921D
:20F560000B0103C085E292EEEEC98091C00087FFFCCF8091C600EAC988E392EEE4C98CE16D
:20F5800091EEE1C988249924933011F1943028F4913089F09230B8F408C0953061F19530E8
:20F5A000F0F0963009F048C043C02B3109F042C991E06BE13FC96227C15DDE4F2883CF52DC
:20F5C000D14092E037C9B22FA0E0622793E032C9822F90E0A82BB92B622794E02BC92E3029
:20F5E00009F039C3622795E0C05DDE4F19821882C053D1401FC9E1E0F0E0EC0FFD1FC05DC8
:20F60000DE4F08811981C053D140E00FF11F20830F5F1F4FC05DDE4F19830883C053D14063
:20F6200062270A171B0709F005C9D80196E002C9261709F010C303C0973009F0FBC8772433
:20F640009981933109F412C19431C8F4963009F4D8C0973050F4923009F406C1933009F4CF
:20F660006DC0913009F059C253C0913109F477C0923108F0BBC0903109F04FC2F5C0983100
:20F6800009F487C0993150F4953109F4EFC0953108F4C6C1963109F040C2C2C19A3109F450
:20F6A0006CC09A3108F491C09B3109F45BC09D3109F033C29D81903359F48F81882311F478
:20F6C0009EE11CC0813011F091E018C098E916C0892F807591F0903539F4E0E0F0E089E064
:20F6E0008093570094910AC0983539F4E3E0F0E089E080935700949101C090E01A821B82C2
:20F700008D818C831D829E831F8227E030E009C21A8288E08B8381E48C8386E58D8382E521
:20F720008E8389E48F8383E5888780E589878FE58A8782E38B872BE030E0F3C18A818139BD
:20F7400041F0823941F0803911F48FE005C080E003C082E001C08AE01A828B8344C07724A1
:20F76000739482C08D81882311F48EE12CC0813011F081E028C088E926C01A82E1E0F0E0A8
:20F7800089E08093570084918B831C8224E030E0C8C18B81803589F48C81883039F4E2E046
:20F7A000F0E089E08093570084910DC0E0E0F0E089E080935700849106C0E3E0F0E089E08A
:20F7C0008093570084911A82DFCF8D81836C99E0E1E0F0E0082E90935700E89507B600FC73
:20F7E000FDCF1A821B8223E030E09BC180EC8A83CE5CDE4F188219821A821B82C253D14031
:20F800008EC18A8190E0A0E0B0E0582F4427332722278B8190E0A0E0B0E0DC0199278827A1
:20F82000282B392B4A2B5B2B8D8190E0A0E0B0E0282B392B4A2B5B2B8C8190E0A0E0B0E049
:20F84000BA2FA92F982F8827282B392B4A2B5B2B220F331F441F551FC05EDE4F28833983B3
:20F860004A835B83C052D1401A8259C13A81C95CDE4F3883C753D140CA5CDE4F1882C6530B
:20F88000D1408B81C82EDD24CA5CDE4F48815981C653D140C42AD52A933109F082C0CE5C1E
:20F8A000DE4F88819981AA81BB81C253D1408050904CA340B04030F583E0CE5CDE4FE880A5
:20F8C000F9800A811B81C253D140F70100935B0080935700E89507B600FCFDCFCE5CDE4FB9
:20F8E000088119812A813B81C253D14000501F4F2F4F3F4FCE5CDE4F088319832A833B83A5
:20F90000C253D140C05EDE4F488159816A817B81C052D140DE011B9631E08C9111962C91A7
:20F9200011971296C75CDE4F2883C953D140C85CDE4F1882C853D14090E0C85CDE4FE8810E
:20F94000F981C853D1408E2B9F2B0C01FA0160935B0030935700E89511244E5F5F4F6F4F43
:20F960007F4F0EEFE02E0FEFF02ECE0CDF1CC114D10499F685E0C05EDE4F088119812A8106
:20F980003B81C052D140F80120935B0080935700E89507B600FCFDCF81E180935700E895CC
:20F9A00035C0C05EDE4F88819981AA81BB81C052D140B695A795979587957C018601ABE0FC
:20F9C000AA2EB12CAC0EBD1E0BC0D5016D915D01C7010F947FFE0894E11CF11C01501040B1
:20F9E0000115110591F7A60160E070E0440F551F661F771FC05EDE4FE880F9800A811B81E7
:20FA0000C052D1404E0D5F1D601F711F1A82C05EDE4F488359836A837B83C052D1407FC002
:20FA2000FA80C55CDE4FF882CB53D140C65CDE4F1882CA53D1408B81C82EDD24C65CDE4FEC
:20FA400008811981CA53D140C02AD12A1A828981BE016D5F7F4F843121F59601C05EDE4FC4
:20FA6000E880F9800A811B81C052D1400BBFF70187919691DB018C9311969C936E5F7F4FEE
:20FA8000D801C7010296A11DB11DC05EDE4F88839983AA83BB83C052D14022503040F1F6D8
:20FAA00036C0C05EDE4F288139814A815B81C052D1400894C108D108760100E010E00894B7
:20FAC000C11CD11C0894E11CF11C011D111DE20EF31E041F151F21BDBB27A52F942F832F09
:20FAE00082BD2F5F3F4F4F4F5F4FF89A80B5DB018D93BD012E153F054007510761F7C05E42
:20FB0000DE4F288339834A835B83C052D14096012D5F3F4FFB01108204C080EC8A8322E005
:20FB200030E08BE18093C6008091C00086FFFCCF8091C00080648093C000C15DDE4FF88103
:20FB4000CF52D140F093C6008091C00086FFFCCF8091C00080648093C000432F3093C60086
:20FB60008091C00086FFFCCF8091C00080648093C000922F2093C6008091C00086FFFCCF81
:20FB80008091C00080648093C0008EE08093C6008091C00086FFFCCF8091C00080648093AD
:20FBA000C00065E1C15DDE4FE880CF52D1406E2569276427FE01319610C090819093C6001C
:20FBC0008091C00086FFFCCF31968091C00080648093C0006927215030402115310569F778
:20FBE0006093C6008091C00086FFFCCF8091C00080648093C00085B1805885B9772081F44B
:20FC0000C15DDE4F0881CF52D1400F5FC15DDE4F0883CF52D14090E0A0E0B0E00D941AF439
:20FC200027982F9880E090E020ED37E0F9013197F1F7019684369105C9F700008091C00028
:20FC40008D7F8093C00081E180935700E895EE27FF270994FFCF90E00D941AF497FB092EEE
:20FC600007260AD077FD04D02ED006D000201AF4709561957F4F0895F6F7909581959F4FB7
:20FC80000895A1E21A2EAA1BBB1BFD010DC0AA1FBB1FEE1FFF1FA217B307E407F50720F05E
:20FCA000A21BB30BE40BF50B661F771F881F991F1A9469F760957095809590959B01AC01D5
:20FCC000BD01CF010895AA1BBB1B51E107C0AA1FBB1FA617B70710F0A61BB70B881F991F65
:20FCE0005A95A9F780959095BC01CD010895F999FECF92BD81BDF89A992780B50895262FAE
:1EFD0000F999FECF1FBA92BD81BD20BD0FB6F894FA9AF99A0FBE01960895F894FFCF70
:00000001FF
