:200000000C9417010C942B010C942B010C942B010C942B010C942B010C942B010C942B0194
:200020000C942B010C942B010C942B010C942B010C942B010C942B010C942B010C942B0160
:200040000C942B010C942B010C942B010C942B010C942B010C942B010C942B010C9410025A
:200060000C942B010C942B010C942B010C942B010C942B010C942B010C942B010C942B0120
:200080000C942B010C942B010C942B010C942B010C942B010C942B010C942B010C942B0100
:2000A0000C942B010C942B010C942B010C942B010C942B010C942B010C942B010C942B01E0
:2000C0000C942B010C942B010C942B010C942B010C942B010C942B010C942B010C942B01C0
:2000E0000C942B010C9485010C94AF010C94AB010C945E010C9474010C9459010C9497012C
:200100000C94A1010C947F010C9478010C948F010C947C010C9489010C9470010C949301A8
:200120000C94A5010C949D0100002100240027002A002D0030003300010100000401070106
:200140000A0100002200250028002B002E003100340002010000050108010B010505050535
:20016000070508080808020202020A0A0808040404040101010101010101030303030303FD
:200180000303040707070C0C0C0C0C0C0C0C0202020206060606060606060B0B0B0B0B0B66
:2001A0000B0B01021020200808102040102040800201020108040201010204081020408052
:2001C00080402010080402018004020180402010080402010804020101020408102040808C
:2001E000010204081020408000000A0B02090C0D0E080703040100000000000000000000A2
:200200000000000000000000000000000000000000000000121110000000000000000000AB
:20022000000000000000000000000000000011241FBECFEFD1E2DEBFCDBF00E00CBF22E065
:20024000A0E0B2E001C01D92A930B207E1F70E945A020C94FE020C940000382FE5EFF1E068
:200260008491EFEAF1E02491E9E6F1E09491992309F435C0882311F181508231F8F4E82F63
:20028000F0E08827E95BFE4F8F4F0C94F60278017C015901700174015E017F0185018901B3
:2002A0008F01930197019D01A1015E01A501AB01AF01809180008F7780938000E92FF0E0CF
:2002C000EE0FFF1FEE5BFE4FA591B4918FB7F894EC91311148C020952E232C938FBF0895A9
:2002E000809180008F7DE8CF80918000877FE4CF84B58F7784BDE2CF84B58F7DFBCF80910F
:20030000B0008F778093B000D9CF8091B0008F7DF9CF809190008F7780939000CFCF80912E
:2003200090008F7DF9CF80919000877FF5CF8091A0008F778093A000C1CF8091A0008F7D37
:20034000F9CF8091A000877FF5CF809120018F7780932001B3CF809120018F7DF9CF809155
:200360002001877FF5CF2E2BB8CF3FB7F8948091050290910602A0910702B091080226B58F
:20038000A89B05C02F3F19F00196A11DB11D3FBFBA2FA92F982F8827BC01CD01620F711DFC
:2003A000811D911D42E0660F771F881F991F4A95D1F708958F929F92AF92BF92CF92DF926B
:2003C000EF92FF920E94B5014B015C0188EEC82E83E0D82EE12CF12C0E94B50168197909B0
:2003E0008A099B09683E734081059105A8F321E0C21AD108E108F10888EE880E83E0981EF9
:20040000A11CB11CC114D104E104F10429F7FF90EF90DF90CF90BF90AF909F908F90089559
:200420001F920F920FB60F9211242F933F938F939F93AF93BF938091010290910202A091E9
:200440000302B09104023091000223E0230F2D3758F50196A11DB11D2093000280930102B9
:2004600090930202A0930302B09304028091050290910602A0910702B09108020196A11DB9
:20048000B11D8093050290930602A0930702B0930802BF91AF919F918F913F912F910F90B1
:2004A0000FBE0F901F90189526E8230F0296A11DB11DD2CF789484B5826084BD84B58160ED
:2004C00084BD85B5826085BD85B5816085BD80916E00816080936E0010928100809181008A
:2004E00082608093810080918100816080938100809180008160809380008091B1008460D4
:200500008093B1008091B00081608093B000809191008260809391008091910081608093F4
:200520009100809190008160809390008091A10082608093A1008091A10081608093A10076
:200540008091A00081608093A00080912101826080932101809121018160809321018091B2
:20056000200181608093200180917A00846080937A0080917A00826080937A0080917A00C4
:20058000816080937A0080917A00806880937A001092C100EFEAF1E02491E9E6F1E0849176
:2005A000882399F090E0880F991FFC01E85DFE4FA591B491FC01EE5BFE4F859194918FB72A
:2005C000F894EC91E22BEC938FBFC0E0D0E081E00E942D010E94DA0180E00E942D010E9468
:2005E000DA012097A1F30E940000F1CFEE0FFF1F881F8BBF0790F691E02D1994F894FFCF35
:200600000F731127E02E8C8D8E110CC00FB607FCFACFE889F989808185FFF5CFCE010E9450
:20062000B202F1CFEB8DEC0FFD2FF11DE35AFF4FF0829FB7F8940B8FEA89FB898081806246
:20064000CFCFCF93DF93EC01888D8823B9F0AA89BB89E889F9898C9185FD03C0808186FD82
:200660000DC00FB607FCF7CF8C9185FFF2CF808185FFEDCFCE010E94B202E9CFDF91CF91CF
:20068000089580E090E0892B29F00E94A80281110E94000080E090E0892B49F080E090E013
:2006A000892B29F00E94000081110E94000080E090E0892B49F080E090E0892B29F00E949B
:2006C000000081110E94000080E090E0892B49F080E090E0892B29F00E94000081110C94B8
:2006E00000000895CF93DF938FE290E09093170280931602C0911602D0911702C333D10592
:2007000084F461E08C2F0E945B0161E070E080E090E00E940C022196D0931702C0931602B8
:20072000E9CF6EE170E080E090E00E940C028FE290E09093170280931602C0911602D091D0
:200740001702C333D10554F460E08C2F0E945B012196D0931702C0931602EFCF6EE170E078
:2007600080E090E0DF91CF910C940C0260E084E30E945B0161E070E080E090E00E940C0275
:2007800061E083E30E945B0161E070E080E090E00E940C0261E085E30E945B0161E070E06B
:2007A00080E090E00E940C0261E08CE20E945B0161E070E080E090E00E940C0261E08EE24A
:2007C0000E945B0161E070E080E090E00E940C026EE170E080E090E00E940C0260E083E345
:2007E0000E945B0160E085E30E945B0160E08CE20E945B0160E08EE20C945B018F929F92AB
:20080000AF92BF920F931F93CF93DF93CDB7DEB7A1970FB6F894DEBF0FBECDBF19A2423059
:2008200008F44AE08E010F5D1F4F842E912CB12CA12CA50194010E949F07E62FB901CA01F3
:20084000EA3044F5E05DD801EE938D01232B242B252B79F790E080E0109769F0FD01019064
:200860000020E9F73197AF014A1B5B0BBD0185E292E00E943E02A1960FB6F894DEBF0FBECA
:20088000CDBFDF91CF911F910F91BF90AF909F908F900895E95CD7CFCF92DF92EF92FF9264
:2008A000CF93DF936C01990FEE08FF08F7FE23C06DE285E292E00E94D402EC0166277727C2
:2008C000CB016C197D098E099F094AE00E94FE03C80FD91F42E050E062E172E085E292E0A6
:2008E0000E943E028C0F9D1FDF91CF91FF90EF90DF90CF9008954AE0C701B6010E94FE032A
:20090000EC01E8CF1F920F920FB60F9211242F933F938F939F93AF93BF9380911D02909179
:200920001E02A0911F02B091200230911C0223E0230F2D3758F50196A11DB11D20931C0229
:2009400080931D0290931E02A0931F02B09320028091210290912202A0912302B091240233
:200960000196A11DB11D8093210290932202A0932302B0932402BF91AF919F918F913F9166
:200980002F910F900FBE0F901F90189526E8230F0296A11DB11DD2CF1F920F920FB60F9273
:2009A00011240BB60F922F933F934F935F936F937F938F939F93AF93BF93EF93FF9385E2C1
:2009C00092E00E94B202FF91EF91BF91AF919F918F917F916F915F914F913F912F910F9050
:2009E0000BBE0F900FBE0F901F9018951F920F920FB60F9211240BB60F922F938F939F9362
:200A0000EF93FF93E0913502F09136028081E0913B02F0913C0282FD1DC0908180913E0235
:200A20008F5F8F7320913F02821741F0E0913E02F0E0EB5DFD4F958F80933E02FF91EF916E
:200A40009F918F912F910F900BBE0F900FBE0F901F9018958081F2CF789484B5826084BD8D
:200A600084B5816084BD85B5826085BD85B5816085BD80916E00816080936E00109281005C
:200A8000809181008260809381008091810081608093810080918000816080938000809131
:200AA000B10084608093B1008091B00081608093B0008091910082608093910080919100AE
:200AC000816080939100809190008160809390008091A10082608093A1008091A100816091
:200AE0008093A1008091A00081608093A0008091210182608093210180912101816080938C
:200B000021018091200181608093200180917A00846080937A0080917A00826080937A0076
:200B200080917A00816080937A0080917A00806880937A001092C1001092170210921602E4
:200B400080911602909117028633910564F59927FC01EE53FE4F249184589E4FFC018491AF
:200B6000882399F090E0880F991FFC01E85BFE4FA591B491FC01EE59FE4F859194918FB768
:200B8000F894EC91E22BEC938FBFC0911602D091170260E08C2F0E945B012196D093170263
:200BA000C0931602CDCF0E94B6030E947203E0913502F091360282E08083E0913102F091D1
:200BC00032021082E0913302F091340280E1808310923D02E0913902F0913A0286E08083DB
:200BE000E0913702F0913802808180618083E0913702F0913802808188608083E0913702B0
:200C0000F0913802808180688083E0913702F091380280818F7D80838AE0F82E04E610E04E
:200C200010921B0210921A0285E292E00E94210385E292E00E949C02892BB9F185E292E048
:200C40000E949C021816190684F561E070E080E090E00E940C0285E292E00E947A02909363
:200C60001B0280931A021092190210921802C3E0D0E061E070E080E090E00E940C0285E2E4
:200C800092E00E947A024091180250911902F49E9001F59E300D1124C097280F391F30930C
:200CA000190220931802219721F780911A0290911B028136910559F5C0911802D09119028F
:200CC000CE0185569109069758F50E94B603CE01B8010E948B07EC012396D0931702C0935A
:200CE000160261E084E30E945B0161E08C2F0E945B016EE170E080E090E00E940C0260E0DD
:200D000084E30E945B0160E08C2F0E945B016EE170E080E090E00E940C020E94410380CF21
:200D2000CE018B5691090697E8F40E94B603CE01B8010E948B07EC012396D0931702C09364
:200D4000160261E082E00E945B0161E08C2F0E945B016EE170E080E090E00E940C0260E081
:200D600082E0CFCFCE0181579109069730F50E94B603CE01B8010E948B07EC012396D09350
:200D80001702C093160261E083E00E945B0161E08C2F0E945B016EE170E080E090E00E9422
:200DA0000C0260E083E00E945B0160E08C2F0E945B01CE010E944C04AACFCE01895C910903
:200DC0000697E8F40E947203CE01B8010E948B07EC016896D0931702C093160261E086E14D
:200DE0000E945B0161E08C2F0E945B016EE170E080E090E00E940C0260E086E1D4CFCE01C3
:200E00008F5C91090697E8F40E947203CE01B8010E948B07EC016896D0931702C09316022F
:200E200061E087E10E945B0161E08C2F0E945B016EE170E080E090E00E940C0260E087E14A
:200E4000B2CFCE01855D91090697E8F40E947203CE01B8010E948B07EC016896D093170213
:200E6000C093160261E088E10E945B0161E08C2F0E945B016EE170E080E090E00E940C0246
:200E800060E088E190CFC737D10549F40E94B6036EE170E080E090E00E940C0238CFCB3DB0
:200EA000D10519F40E947203F3CFCD34D14009F02ECF0E94B6030E94720329CFE5E2F2E06B
:200EC0001382128288EE93E0A0E0B0E084839583A683B78384E092E09183808385EC90E0A0
:200EE0009587848784EC90E09787868780EC90E0918B808B81EC90E0938B828B82EC90E0D7
:200F0000958B848B86EC90E0978B868B118E128E138E148E089597FB072E16F4009407D032
:200F200077FD09D00E94C90707FC05D03EF4909581959F4F0895709561957F4F0895A1E239
:200F40001A2EAA1BBB1BFD010DC0AA1FBB1FEE1FFF1FA217B307E407F50720F0A21BB30B30
:200F6000E40BF50B661F771F881F991F1A9469F760957095809590959B01AC01BD01CF01EF
:200F80000895EE0FFF1F881F8BBF0790F691E02D1994AA1BBB1B51E107C0AA1FBB1FA617DC
:200FA000B70710F0A61BB70B881F991F5A95A9F780959095BC01CD010895F894FFCF000046
:200FC0000000D4023E026B0221039C027A028E020D0A0000FFFFFFFFFFFFFFFFFFFFFFFFB5
:200FE000FFFFFFFFFFFFFFFFFFFFFFFFFFFFFFFFFFFFFFFFFFFFFFFFFFFFFFFFFFFFFFFF11
:201000000E93119725EE32E033832283848315828981868317820E94F3222DB73EB7285FA6
:201020003F4F0FB6F8943EBF0FBE2DBF8AE79FE0B8010E94BF2120E030E020C18AE79FE00F
:201040006BEE72E071D98BE49DE00E94F3128C01EE24FF24AEE0CA2ED12CCC0EDD1EF3E01B
:20106000AF2EF3E0BF2E37C000FF30C0C80196958795892B19F480E093E002C081E093E0B3
:20108000ADB7BEB71A970FB6F894BEBF0FBEADBFEDB7FEB731961296DC92CE921197B3824C
:2010A000A282F582E482F782E682918780870E94F3222DB73EB7265F3F4F0FB6F8943EBF3E
:2010C0000FBE2DBF8AE79FE0B6012ED90894E11CF11C169507950115110531F68AE79FE079
:2010E00062E173E021D9EF2809F43EC000E010E06EE0E62EF12CEC0EFD1E5DE1C52E53E086
:20110000D52E0730110519F480E093E002C081E093E0ADB7BEB71A970FB6F894BEBF0FBEE4
:20112000ADBFEDB7FEB731961296FC92EE921197D382C282158304831783068391878087CB
:201140000E94F3222DB73EB7265F3F4F0FB6F8943EBF0FBE2DBF8AE79FE0B701E5D80F5F12
:201160001F4F0830110569F68AE79FE06AE273E060CF8DB79EB70A970FB6F8949EBF0FBEE1
:201180008DBFEDB7FEB73196ADB7BEB712961C930E9311978CED92E093838283CE010396FC
:2011A00095838483CE01049697838683CE010596918780870E9416232DB73EB7265F3F4F34
:2011C0000FB6F8943EBF0FBE2DBF039709F054C08AE79FE06EE273E00E94D3208BE49DE04D
:2011E0006D810E948513FF244EE0C42ED12CCC0EDD1E30E3A32E33E0B32E37C0082F10E0BC
:2012000080FF2FC0C80195958795892B19F480E093E002C081E093E0ADB7BEB718970FB6DA
:20122000F894BEBF0FBEADBFEDB7FEB731961296DC92CE921197B382A282F48215829783AE
:2012400086830E94F3222DB73EB7285F3F4F0FB6F8943EBF0FBE2DBF8AE79FE0B6010E9490
:20126000D32015950795802FF394882339F68AE79FE065E373E0DDCE21E030E0C901C35BF6
:20128000DF4F0FB6F894DEBF0FBECDBFCF91DF911F910F91FF90EF90DF90CF90BF90AF904F
:2012A00008950F931F9303E41DE0C80169E147E12BE10E945A1410934C0D00934B0D1F916B
:2012C0000F9108950F931F93DF93CF93CDB7DEB7A8970FB6F894DEBF0FBECDBF00D000D06A
:2012E000EDB7FEB731968E010F5F1F4FADB7BEB712961C930E9311978FEA93E093838283E3
:201300008EEB93E0958384830E94F3228DB79EB706960FB6F8949EBF0FBE8DBF8AE79FE01F
:20132000B8010E94BF2180E090E0A8960FB6F894DEBF0FBECDBFCF91DF911F910F91089560
:201340008AE79FE064EC73E00E94BF2180E090E008958AE79FE06EEB73E00E94BF2180E08D
:2013600090E00895CF93DF93CFE5D3E0CE0167E373E00E94E322009719F4C0E0D0E05CC002
:2013800080915F03803709F43DC0813764F48335A9F084352CF4843299F0883451F40CC0E3
:2013A000883639F43AC08637B1F18737C1F1823721F1C1E0D0E035C0A8DC32C0ECDC30C03A
:2013C000FE0101900020E9F721E533E0E156F340AE014F5F5F4FC901BA01AF010E94D32223
:2013E000FE0101900020E9F7EF55F340E25BFC4F108281E08093420D0BC08AE79FE061E508
:2014000073E004C08AE79FE069E373E00E94BF21C0E0D0E006C09DDF03C092DF01C052DFEC
:20142000EC01FE01EE0FFF1FEF5CF34F608171818AE79FE00E94BF21CE01DF91CF91089597
:201440001F932AC08AE79FE00E949F1C182F80914F0D9091500DFC01E15AFC4F10830196C4
:201460009093500D80934F0D8AE79FE0612F0E94D81C1D3089F4E0914F0DF091500DE15AB7
:20148000FC4F10821092500D10924F0D8AE79FE06AE00E94D81C66DF8AE79FE00E946C1C43
:2014A000892B81F61F910895CBCF8AE79FE040E855E260E070E00E94F31A8BE49DE065E259
:2014C0000E9435148BE49DE00E94F312892B11F480E005C08BE49DE00E94211381E0B4D009
:2014E000FC0190934E0D80934D0DA081B1812D913C91F9011995E6DE8AE79FE06EE373E026
:201500000C94BF2181E090E0089581E090E0089581E090E0089581E090E008950895FC01F9
:2015200088E79CE0918380831482138212820895FC0188E79CE0918380831482138212828F
:201540000895FC0188E79CE0918380835383428364830895FC0188E79CE0918380835383FB
:20156000428364830895FC0188E79CE0918380837383628314820895FC0188E79CE0918319
:2015800080837383628314820895FC0188E79CE0918380830895FC0188E79CE0918380839F
:2015A00008950F931F938C01DC01ED91FC910284F385E02D1995D801ED91FC910280F38132
:2015C000E02DC80119951F910F910895FB01DC0112968D919C911397892B39F084E090E073
:2015E0009183808321E53CE004C01182108220E030E0C9010895FC0182819381892B19F47D
:2016000020E030E002C023E030E0C9010895FC01828193810895DC011296ED91FC91139793
:20162000EE0FFF1FE259F34F808191810895FC0184810895C4D5882319F421E030E002C09F
:2016400022E030E0C90108950F931F93182FF2DF8130910529F00297D1F0E0E0F0E022C079
:20166000112341F485E090E00E94761E182F092FD0D114C085E090E00E94761EFC0188E78B
:201680009CE0918380831482138212820BC085E090E00E94761E182F092F5AD7212F302FC3
:2016A000C901FC01CF011F910F910895DF92EF92FF920F931F93CF93DF937C01D62EC0E0DA
:2016C000D0E013C0D701ED91FC910480F581E02DC701BE01412F2D2D0FEF19951F5F1330DF
:2016E00089F72196C330D10511F010E0EBCF80E090E0DF91CF911F910F91FF90EF90DF90D2
:201700000895EF92FF920F931F93CF93DF937C01C0E0D0E013C0D701ED91FC910480F58175
:20172000E02DC701BE01412F20E00FEF19951F5F133089F72196C430D10511F010E0EBCF8C
:2017400080E090E0DF91CF911F910F91FF90EF900895EF92FF920F931F93CF93DF9305E9C6
:201760001CE08BE9E82E8CE0F82EC1EADCE0F801808161E00E948B16F701808161E00E9490
:201780008B16888161E00E948B168A8161E00E948B168C8161E00E948B168E8161E00E9409
:2017A0008B160E5F1F4F82E090E0E80EF91E28969CE00B391907D9F6DF91CF911F910F9141
:2017C000FF90EF9008958F929F92AF92BF92CF92DF92EF92FF920F931F93CF93DF937901F4
:2017E000643071050CF086C0433008F083C088248A94982CF901918280826130710509F44E
:2018000065C06230710524F46115710551F075C06230710509F461C06330710509F06DC0CC
:201820001FC0042F10E043E0000F111F4A95E1F70056134FF80181810E9470175C01F8015B
:2018400083810E947017EC01F80185810E9470176C01F80187810E947017892B19F51EC00F
:20186000042F10E033E0000F111F3A95E1F70056134FF80181810E9470175C01F801838116
:201880000E947017EC01F80185810E9470176C01F80187810E947017892B21F0F701118223
:2018A00010822BC0CE018A219B218C219D21F70191838083CA29DB29CC29DD298C179D07C2
:2018C000E1F09182808223E030E019C0E42FF0E0EE0FFF1FE656F34F06C0E42FF0E0EE0F14
:2018E000FF1FEC56F34F81810E947017F7019183808303C021E030E002C020E030E0C9019C
:20190000DF91CF911F910F91FF90EF90DF90CF90BF90AF909F908F900895FF920F931F936D
:20192000F22E643071050CF06DC0433008F06AC06130710509F457C06230710524F461150E
:20194000710549F02BC06230710509F453C06330710521F526C0042F10E0E3E0000F111FAB
:20196000EA95E1F70056134FF8018181622F0E943E176AE070E080E090E00E94C615F801F5
:2019800083816F2D0E943E17F80185816F2D0E943E17F80187816F2D0E943E1720E030E07A
:2019A00033C0042F10E073E0000F111F7A95E1F70056134FF8018181622F0E943E176AE013
:2019C00070E080E090E00E94C615F80183816F2D0E943E17F80185816F2D0E943E17F8014F
:2019E000878160E0D9CFE42FF0E0EE0FFF1FE656F34F06C0E42FF0E0EE0FFF1FEC56F34F33
:201A00008181C9CF21E030E0C9011F910F91FF9008950F931F938C0161E041E050E091DDF4
:201A200088E89CE0F801918380831F910F9108950F931F938C0161E041E050E082DD88E87B
:201A40009CE0F801918380831F910F9108956130710509F454C0623071051CF4672B59F002
:201A600007C06230710509F455C06330710531F140E050E05FC0842F90E0FC01EE0FFF1FB0
:201A8000E80FF91FEE0FFF1FE853F34F838190E0019721E030E0A90102C0440F551F8A9530
:201AA000E2F7818190E00197B90102C0660F771F8A95E2F7462B572B858117C0842F90E0D1
:201AC000FC01EE0FFF1FE80FF91FEE0FFF1FE853F34F838190E0019721E030E0A90102C0BE
:201AE000440F551F8A95E2F7818190E0019702C0220F331F8A95E2F7422B532B1BC0E42F07
:201B0000F0E0EE0FFF1FE652F34F818190E00197AB010BC0E42FF0E0EE0FFF1FE052F34F6D
:201B2000818190E0019741E050E002C0440F551F8A95E2F7CA010895EF92FF920F931F93FB
:201B4000CF93DF93E7016115710529F06330710509F089C03EC02130310531F4B801A0E096
:201B6000B0E001E010E00CC02F5F3F4F09F082C061E070E0601B710BA1E0B0E000E010E078
:201B80006115710509F441C06130710509F072C0842F90E0FC01EE0FFF1FE80FF91FEE0FE2
:201BA000FF1FE853F34F858190E001979B0102C0220F331F8A95E2F7838190E0019702C0D5
:201BC000660F771F8A95E2F7262B372B1983088353C02130310531F49801A0E0B0E061E07F
:201BE00070E00CC02F5F3F4F09F044C021E030E0201B310BA1E0B0E060E070E0211531051B
:201C000021F021303105B1F518C0842F90E0FC01EE0FFF1FE80FF91FEE0FFF1FE853F34FCC
:201C2000818190E0019721E030E002C0220F331F8A95E2F7B983A8831FC0842F90E0FC01E6
:201C4000EE0FFF1FE80FF91FEE0FFF1FE853F34F838190E0019702C0220F331F8A95E2F779
:201C60007983688309C0F3DE9C0181E090E09983888302C020E030E0C901DF91CF911F9132
:201C80000F91FF90EF9008951F93CF93DF938FE260E00E943E178FE261E00E943E1780E3BF
:201CA00061E00E943E1711E018C081E360E00E943E1781E361E00E943E1780E360E00E94A7
:201CC0003E172196C031D10581F78EE20E947017019731F01F5F153019F0C0E0D0E0E5CF97
:201CE0008FE260E00E943E178FE261E00E943E17812FDF91CF911F910895EF92FF920F9312
:201D00001F93CF93DF938C01EB018FE260E00E943E178FE261E00E943E17F801248133277B
:201D200027FD3095C9010197880F991FC80FD91F00E010E079010DC0298180E361E341E0B1
:201D40000E949F1780E361E341E028810E949F1722970F5F1F4FC701801B910B97FFECCF7D
:201D600083E360E00E943E1783E361E00E943E1780E090E0DF91CF911F910F91FF90EF902A
:201D80000895AF92BF92CF92DF92EF92FF920F931F93CF93DF937C018B01FC012481332703
:201DA00027FD3095220F331FC80160E070E0A9010E94DC228EE20E947017682F80E30E94DF
:201DC0003E17F7018481992787FD909501977C01EE0CFF1CE00EF11ECC24DD245C0130C0E3
:201DE000CEE0D0E081E360E00E943E1781E361E00E943E178EE20E94701700E0892B09F028
:201E000001E080E3602F0E943E17202F30E00C2E02C0220F331F0A94E2F7F7018081918198
:201E2000822B932B918380832197FFEFCE3FDF07C9F60894C11CD11C8EEF9FEFE80EF91E4A
:201E4000C5018C199D0997FFCBCF80E090E0DF91CF911F910F91FF90EF90DF90CF90BF9026
:201E6000AF9008952F923F924F925F926F927F928F929F92AF92BF92CF92DF92EF92FF9248
:201E80000F931F93DF93CF9300D00F92CDB7DEB75C0169831A012DB73EB73B832A83FC01EB
:201EA0008481992787FD9095481759071CF021E030E07EC0880F991F2DB73EB7281B390BEB
:201EC0000FB6F8943EBF0FBE2DBF0DB71EB70F5F1F4F402E1C83C501B80153DFCC24DD24D7
:201EE0003101660C771C600E711E5AC03FEF23163FEF330639F4842D9C819C017901882408
:201F000099243AC08981882351F0C501B601452D9EDDF30120813181282B392B0BC0C5011B
:201F2000B601452D94DD80959095F30120813181282339233183208327C0F7010081118196
:201F4000F981FF2339F0C501B601452D80DD082B192B08C0C501B601452D79DD80959095B2
:201F600008231923F701118300830894811C911C22E030E0E20EF31EF5018481992787FDB3
:201F8000909588169906CCF25394F3E05F1609F0ADCF0894C11CD11C23E0C216D10411F066
:201FA0005524A4CFC501642D7C81A7DE20E030E0C901EA81FB810FB6F894FEBF0FBEEDBF14
:201FC0000F900F900F900F90CF91DF911F910F91FF90EF90DF90CF90BF90AF909F908F90AD
:201FE0007F906F905F904F903F902F9008952F923F925F926F927F928F929F92AF92BF9261
:20200000CF92DF92EF92FF920F931F93DF93CF93CDB7DEB75C014B01542E39012DB63EB65F
:20202000FC01848108170CF063C0643071050CF05FC022E0241708F45BC0992787FD90957E
:20204000880F991FEDB7FEB7E81BF90B0FB6F894FEBF0FBEEDBFEDB6FEB60894E11CF11C4D
:20206000C501B7018EDEC501B401452DF0DC6C01112707FD1095F3E08F169104A1F020E0D1
:2020800030E0000F111FE00EF11EF701808191818C219D218C159D0511F421E030E0F30131
:2020A0003183208315C0C50160E070E0452DCFDC000F111FE00EF11EF701608171819B01DE
:2020C000282339232817390731F4F3011182108220E030E00FC0F301118210826C217D2179
:2020E0006C157D05A9F781E090E091838083F0CF21E030E0C9010FB6F8943EBE0FBE2DBEB6
:20210000CF91DF911F910F91FF90EF90DF90CF90BF90AF909F908F907F906F905F903F901B
:202120002F900895CF92DF92EF92FF920F931F93DF93CF93CDB7DEB77C01CDB6DEB6FC018D
:202140002481332727FD3095220F331F8DB79EB7821B930B0FB6F8949EBF0FBE8DBF0DB7B5
:202160001EB70F5F1F4FC80160E070E0A9010E94DC22C701B801C1DD80E090E00FB6F894CB
:20218000DEBE0FBECDBECF91DF911F910F91FF90EF90DF90CF9008958EE260E0BCD58FE200
:2021A00061E0B9D580E361E0B6D581E361E0B3D583E361E0B0D585E361E0ADC5EDCF2F9230
:2021C0003F924F925F926F927F928F929F92AF92BF92CF92DF92EF92FF920F931F93DF93BC
:2021E000CF93CDB7DEB762970FB6F894DEBF0FBECDBFDE011196E6EEFCE089E001900D9255
:202200008150E1F78E01065F1F4F89E0F80111928A95E9F7C1DF85E361E030D68FE260E0AF
:202220002DD68FE261E02AD6F98080E36F2D26D6662463947724CC24DD24AA24BB2482E059
:20224000282E312C2C0E3D1E28018F2C992487FC909445C081E360E011D681E361E00ED6D5
:20226000A114B10431F4073011051CF4F701608101C060E080E302D68EE232D6662071F0FE
:202280008815990559F4F201EC0DFD1D80820894C11CD11C6624772473940FC0772069F05D
:2022A000F201EC0DFD1D80830894C11CD11CF8E0CF16D10411F411E009C00F5F1F4F0894E6
:2022C000E11CF11C0031110529F610E00894A11CB11C85E0A816B10431F0112321F47101C4
:2022E00000E010E0B7CF8FE260E0C8D58FE261E0C5D5112311F480E010C0BE01665F7F4F33
:20230000C60ED71EF6011082CE0101960E94E3229C0180E0232B09F481E062960FB6F8946C
:20232000DEBF0FBECDBFCF91DF911F910F91FF90EF90DF90CF90BF90AF909F908F907F90C0
:202340006F905F904F903F902F9008952F923F924F925F926F927F928F929F92AF92BF922B
:20236000CF92DF92EF92FF920F931F93DF93CF93CDB7DEB72C970FB6F894DEBF0FBECDBF2E
:202380002C017C836B834D832E832DB73EB738872F83FC01848108170CF09DC064307105D4
:2023A0000CF099C0433008F096C01A82198222243324602E772467FC7094660C771C83C05B
:2023C000FDB7F9872EB72A873E81332319F42FEF3FEF02C021E030E0C2016B817C814D8178
:2023E00081017E010894E11CF11CA6DB4C01F2018481992787FD9095880F991F2DB73EB7DF
:20240000281B390B0FB6F8943EBF0FBE2DBFCDB6DEB60894C11CD11CCB86DC86C201B60184
:20242000B0DC8B819C81039701F5F601E60DF71DA080B1809E81992319F42FEF3FEF02C012
:2024400021E030E0C20160E070E04D8181017E010894E11CF11C70DBF601E60DF71D809545
:202460009095A822B922B182A082EE81EE2341F0F601E60DF71D808191818829992909C03F
:20248000F601E60DF71D80949094808191818821992191838083C2016B857C852EDC8981B1
:2024A0009A81892B29F46AE070E080E090E06ED389859A859C010FB6F8943EBF0FBE2DBFB4
:2024C0000894211C311C89819A81892B09F478CF20E030E002C021E030E0C9012F8138859F
:2024E0000FB6F8943EBF0FBE2DBF2C960FB6F894DEBF0FBECDBFCF91DF911F910F91FF901D
:20250000EF90DF90CF90BF90AF909F908F907F906F905F904F903F902F9008950F931F9337
:202520008C013FD8C801B0DBD80114968C9385E360E0A4D48FE261E0A1D4D801ED91FC91D6
:202540000280F381E02DC80119951F910F9108950F931F938C0162E070E005D88CEB9CE0D1
:20256000F801918380831F910F9108950F931F938C0162E070E00E94B30A8CEB9CE0F801A0
:20258000918380831F910F9108950F931F93CF93DF93EC01062F1EC0102F1F73888199811B
:2025A000612F40E050E0ADD18881998162E040E050E0A7D1106488819981612F40E050E019
:2025C000A0D1888199816FE741E050E09AD1813021F00F5F003100F300E1802FDF91CF91A1
:2025E0001F910F910895EF92FF920F931F93CF93DF938C0160E0C9DF682FC0E0D0E081E0F7
:20260000E82EF12C0DC0C701062E02C0880F991F0A94E2F7C82BD92B6F5FC801B6DF682F7C
:20262000603189F7CE01DF91CF911F910F91FF90EF900895FC01606C8081918141E050E0C2
:2026400060C16FE3F7CFEF92FF920F931F93CF93DF93EC01162F7A01022F4115510561F02C
:202660006F738881998140E050E04BD1888199816E2D40E050E045D11F7310688881998198
:20268000612F40E050E03DD188819981602F41E050E037D1DF91CF911F910F91FF90EF9013
:2026A0000895342F37702111306840E050E0232FCACFCF92DF92EF92FF921F93CF93DF9304
:2026C0007C016A016F736064FC018081918140E050E017D110E0C0E0D0E0812F90E08C1523
:2026E0009D0511F4C1E0D0E0F701808191816FE7AE0107D11F5FCD2B71F3DF91CF911F91A0
:20270000FF90EF90DF90CF90089541E050E0D1CFCF93DF93EA0140E050E0CBDF982F209718
:2027200029F0188287FF02C081E08883892F8770DF91CF91089542E050E0BBCFFF920F9307
:202740001F93CF93DF93EC0160E079C0FF24CE01602F4F2D21E0A5DF6AE070E080E090E0A1
:2027600015D28AE79FE06FEE7CE00E94D3208AE79FE0602F4AE050E00E9427208AE79FE082
:202780006F2D4AE050E00E9427208AE79FE064EF7CE00E94D32010E0CE01602F412F50E038
:2027A00088DF682F8AE79FE040E150E00E9427208AE79FE067EF7CE00E94D3201F5F1330F9
:2027C00059F78AE79FE069EF7CE00E94BF2168EE73E080E090E0DAD1F39488E0F81609F069
:2027E000B6CFCE01602FA7DF182F8AE79FE06FEE7CE00E94D3208AE79FE0602F4AE050E012
:202800000E9427208AE79FE068E04AE050E00E9427208AE79FE06BEF7CE00E94D3208AE7A8
:202820009FE0612F40E150E00E9427208AE79FE069EF7CE00E94BF210F5FCE01602FA5DEDA
:20284000082F803109F082CF68EE73E080E090E09DD1CE01F6DEDF91CF911F910F91FF900D
:202860000895FC018081918140C0FF920F931F938C01F62EFC018081918163E070E025D07D
:20288000F8018081918160E070E02BD0F801808191816F2DDCD01F910F91FF900895FC01D4
:2028A000608341832283138281E084831582178216820895FC01608341832283138281E02B
:2028C00084831582178216820895FC0114826230710514F081E08483862F809581708583C2
:2028E0000895FC017783668308950F931F938C01FC01838161E0C2D2F80113821F910F9129
:2029000008956F927F928F929F92AF92BF92CF92DF92EF92FF920F931F93CF93DF93EC012B
:20292000162F3A018B8160E0A9D200E027E0B22E97E0A92E812E992481E0C82ED12CE12C6E
:20294000F12C8E819F81892B11F41B2D02C01A2D1B19B401012E02C0759567950A94E2F7CA
:2029600061708A818BD28D81882359F185E090E066D160E08C81882309F461E088817ED280
:202980008981AED2892B59F0D701C60104C0880F991FAA1FBB1F1A95D2F7082B0BC0D7010D
:2029A000C60104C0880F991FAA1FBB1F1A95D2F78095082385E090E042D188816C815ED2D4
:2029C0002AC060E08C81882309F461E0888156D285E090E034D1898183D2892B59F0D70198
:2029E000C60104C0880F991FAA1FBB1F1A95D2F7082B0BC0D701C60104C0880F991FAA1F69
:202A0000BB1F1A95D2F78095082388816C8136D285E090E014D1BA948FEFB81609F091CF79
:202A200081E06816710419F48B8161E027D2802FDF91CF911F910F91FF90EF90DF90CF9044
:202A4000BF90AF909F908F907F906F9008950F931F938C01FC016383818160E05CD1F801C3
:202A6000808161E058D1F801828161E054D1F801838161E050D1F801828161E0FFD1F80124
:202A8000838161E0FBD1F80180816481F7D11F910F9108951F920F920FB60F9211242F93E2
:202AA0003F938F939F93AF93BF938091550D9091560DA091570DB091580D3091590D01966C
:202AC000A11DB11D232F2D5F2D3720F02D570196A11DB11D2093590D8093550D9093560D5D
:202AE000A093570DB093580D8091510D9091520DA091530DB091540D0196A11DB11D80933F
:202B0000510D9093520DA093530DB093540DBF91AF919F918F913F912F910F900FBE0F9023
:202B20001F9018958FB7F8942091550D3091560D4091570D5091580D8FBFB901CA01089545
:202B40009FB7F8942091510D3091520D4091530D5091540D86B5A89B06C08F3F21F02F5F40
:202B60003F4F4F4F5F4F9FBF542F432F322F2227280F311D411D511D82E0220F331F441FE5
:202B8000551F8A95D1F7B901CA0108959B01AC017FB7F8948091510D9091520DA091530D2D
:202BA000B091540D66B5A89B05C06F3F19F00196A11DB11D7FBFBA2FA92F982F8827860F6C
:202BC000911DA11DB11D62E0880F991FAA1FBB1F6A95D1F7BC012DC0FFB7F8948091510D65
:202BE0009091520DA091530DB091540DE6B5A89B05C0EF3F19F00196A11DB11DFFBFBA2F7E
:202C0000A92F982F88278E0F911DA11DB11DE2E0880F991FAA1FBB1FEA95D1F7861B970B51
:202C2000885E9340C8F2215030404040504068517C4F211531054105510571F60895019708
:202C400039F0880F991F880F991F02970197F1F70895789484B5826084BD84B5816084BD34
:202C600085B5826085BD85B5816085BDEEE6F0E0808181608083E1E8F0E010828081826002
:202C80008083808181608083E0E8F0E0808181608083E1EBF0E0808184608083E0EBF0E0B0
:202CA000808181608083E1E9F0E0808182608083808181608083E0E9F0E08081816080834C
:202CC000E1EAF0E0808182608083808181608083E0EAF0E0808181608083E1E2F1E080817A
:202CE00082608083808181608083E0E2F1E0808181608083EAE7F0E0808184608083808108
:202D0000826080838081816080838081806880831092C1000895CF93DF93482F50E0CA01B7
:202D200088589E4FFC0134914E5C5E4FFA018491882369F190E0880F991FFC01EC51FF4F51
:202D4000A591B491FC01E250FF4FC591D491662351F42FB7F8948C91932F909589238C93B1
:202D6000888189230BC0623061F42FB7F8948C91932F909589238C938881832B88832FBFFB
:202D800006C09FB7F8948C91832B8C939FBFDF91CF910895893009F449C08A30A0F4843015
:202DA00051F1853040F4823079F1833000F5813009F063C026C0873079F1883098F5863055
:202DC00009F05BC025C08D3009F442C08E3028F48B30B1F18C30C0F52DC0803109F442C0F9
:202DE000813109F445C08F3009F047C037C0809180008F7703C0809180008F7D80938000DF
:202E0000089584B58F7702C084B58F7D84BD08958091B0008F7703C08091B0008F7D809387
:202E2000B0000895809190008F7707C0809190008F7D03C080919000877F80939000089580
:202E40008091A0008F7707C08091A0008F7D03C08091A000877F8093A0000895809120013B
:202E60008F7703C0809120018F7D80932001089580912001877F809320010895FF920F933E
:202E80001F93F62E482F50E0CA0182549E4FFC012491CA0188589E4FFC0114914E5C5E4FE4
:202EA000FA0104910023C1F0222311F0822F72DFE02FF0E0EE0FFF1FE250FF4FA591B49171
:202EC0009FB7F894FF2021F48C911095812302C08C91812B8C939FBF1F910F91FF900895F2
:202EE0000F931F93482F50E0CA0182549E4FFC012491CA0188589E4FFC0104914E5C5E4F16
:202F0000FA011491112319F420E030E014C0222311F0822F3FDF812F90E0880F991F885E82
:202F20009E4FFC01A591B4918C9120E030E0802311F021E030E0C9011F910F910895BF9242
:202F4000CF92DF92EF92FF920F931F93CF93DF93E82EF62EB42EC7E0D0E0022F10E087E06A
:202F6000C82ED12CBB2059F4B6016C1B7D0BC80102C0959587956A95E2F7BC0107C0B8018A
:202F80000C2E02C0759567950A94E2F761708E2D75DF8F2D61E072DF8F2D60E06FDF219788
:202FA0009FEFCF3FD907F1F6DF91CF911F910F91FF90EF90DF90CF90BF900895CF92DF92F4
:202FC000EF92FF920F931F93CF93DF93F82E062FE42E10E0C7E0D0E097E0C92ED12C802FE9
:202FE00061E04CDFEE2059F48F2D7ADF96012C1B3D0B02C0880F991F2A95E2F708C08F2DA2
:203000006FDF0C2E02C0880F991F0A94E2F7182B802F60E033DF21978FEFCF3FD807F9F64A
:20302000812FDF91CF911F910F91FF90EF90DF90CF90089508951F920F920FB60F920BB631
:203040000F9211242F933F934F938F939F93EF93FF938091C00082FD1DC04091C600209147
:203060009A0D30919B0D2F5F3F4F2F73307080919C0D90919D0D2817390771F0E0919A0D65
:20308000F0919B0DE65AF24F408330939B0D20939A0D02C08091C600FF91EF919F918F9105
:2030A0004F913F912F910F900BBE0F900FBE0F901F90189508951F920F920FB60F920BB6BB
:2030C0000F9211242F933F934F938F939F93EF93FF938091C80082FD1DC04091CE002091B7
:2030E000220E3091230E2F5F3F4F2F7330708091240E9091250E2817390771F0E091220E38
:20310000F091230EEE51F24F40833093230E2093220E02C08091CE00FF91EF919F918F91E2
:203120004F913F912F910F900BBE0F900FBE0F901F90189508951F920F920FB60F920BB63A
:203140000F9211242F933F934F938F939F93EF93FF938091D00082FD1DC04091D600209126
:20316000AA0E3091AB0E2F5F3F4F2F7330708091AC0E9091AD0E2817390771F0E091AA0E0F
:20318000F091AB0EE659F14F40833093AB0E2093AA0E02C08091D600FF91EF919F918F91C3
:2031A0004F913F912F910F900BBE0F900FBE0F901F90189508951F920F920FB60F920BB6BA
:2031C0000F9211242F933F934F938F939F93EF93FF938091300182FD1DC0409136012091E4
:2031E000320F3091330F2F5F3F4F2F7330708091340F9091350F2817390771F0E091320FE2
:20320000F091330FEE50F14F40833093330F2093320F02C080913601FF91EF919F918F9147
:203220004F913F912F910F900BBE0F900FBE0F901F901895E091860FF091870FE05CFF4FA8
:203240008191919120813181805C9F4F821B930B60E470E00E94B62A892B09F0EBDEE091E5
:20326000A80FF091A90FE05CFF4F8191919120813181805C9F4F821B930B60E470E00E9412
:20328000B62A892B09F016DFE091CA0FF091CB0FE05CFF4F8191919120813181805C9F4F2C
:2032A000821B930B60E470E00E94B62A892B09F041DFE091EC0FF091ED0FE05CFF4F81916B
:2032C000919120813181805C9F4F821B930B60E470E00E94B62A892B09F06CCF08951F9228
:2032E0000F920FB60F920BB60F9211242F933F938F939F93EF93FF932091DE0D3091DF0DEB
:203300008091E00D9091E10D2817390731F48091C1008F7D8093C10014C0E091E00DF09197
:20332000E10DE256F24F20818091E00D9091E10D01968F7390709093E10D8093E00D20931B
:20334000C600FF91EF919F918F913F912F910F900BBE0F900FBE0F901F9018951F920F9296
:203360000FB60F920BB60F9211242F933F938F939F93EF93FF932091660E3091670E8091E8
:20338000680E9091690E2817390731F48091C9008F7D8093C90014C0E091680EF091690E06
:2033A000EA5DF14F20818091680E9091690E01968F7390709093690E8093680E2093CE0089
:2033C000FF91EF919F918F913F912F910F900BBE0F900FBE0F901F9018951F920F920FB617
:2033E0000F920BB60F9211242F933F938F939F93EF93FF932091EE0E3091EF0E8091F00E1F
:203400009091F10E2817390731F48091D1008F7D8093D10014C0E091F00EF091F10EE2551C
:20342000F14F20818091F00E9091F10E01968F7390709093F10E8093F00E2093D600FF9197
:20344000EF919F918F913F912F910F900BBE0F900FBE0F901F9018951F920F920FB60F9285
:203460000BB60F9211242F933F938F939F93EF93FF932091760F3091770F8091780F909183
:20348000790F2817390731F4809131018F7D8093310114C0E091780FF091790FEA5CF04F12
:2034A00020818091780F9091790F01968F7390709093790F8093780F20933601FF91EF9152
:2034C0009F918F913F912F910F900BBE0F900FBE0F901F9018958F929F92AF92BF92CF92F8
:2034E000DF92EF92FF920F931F93DF93CF93CDB7DEB7FC011382128288EE93E0A0E0B0E0E9
:2035000084839583A683B7838AE09DE0918380837587648757874687318B208B138B028B07
:20352000F58AE48AD78AC68AB18EA08E938E828E8889848F8989858F8A89868F8B89878FB3
:203540008C8980A3CF91DF911F910F91FF90EF90DF90CF90BF90AF909F908F9008958F929D
:203560009F92AF92BF92CF92DF92EF92FF920F931F93DF93CF93CDB7DEB7FC01138212823D
:2035800088EE93E0A0E0B0E084839583A683B7838AE09DE091838083758764875787468720
:2035A000318B208B138B028BF58AE48AD78AC68AB18EA08E938E828E8889848F8989858FF3
:2035C0008A89868F8B89878F8C8980A3CF91DF911F910F91FF90EF90DF90CF90BF90AF90D7
:2035E0009F908F900895AF92BF92DF92EF92FF920F931F93CF93DF93EC017A018B01DD24AE
:20360000403081EE580780E0680780E0780711F0DD24D39491E0A92EB12CEC89FD89DD2038
:2036200069F0C50108A002C0880F991F0A94E2F7808360E079E08DE390E005C0108260E820
:2036400074E88EE190E0A80197010E94C92A2150304040405040569547953795279580E1B8
:203660002030380720F0DD2011F0DD24D6CFE889F9893083EA89FB89208319A2EE89FF890D
:20368000408121E030E0C9010C8C02C0880F991F0A94E2F7482B4083EE89FF894081C901AE
:2036A0000D8C02C0880F991F0A94E2F7482B4083EE89FF894081C9010E8C02C0880F991F7E
:2036C0000A94E2F7482B4083EE89FF8980810F8C02C0220F331F0A94E2F720952823208343
:2036E000DF91CF911F910F91FF90EF90DF90BF90AF900895AF92BF92CF92DF92EF92FF928C
:203700000F931F93CF93DF93EC017A018B01C22EDD24403081EE580780E0680780E07807B0
:2037200011F0DD24D39471E0A72EB12CEC89FD89DD2069F0C50108A002C0880F991F0A94AF
:20374000E2F7808360E079E08DE390E005C0108260E874E88EE190E0A80197010E94C92A64
:203760002150304040405040569547953795279580E12030380720F0DD2011F0DD24D6CF65
:20378000E889F9893083EA89FB892083E88DF98DC082EE89FF89408121E030E0C9010C8C79
:2037A00002C0880F991F0A94E2F7482B4083EE89FF894081C9010D8C02C0880F991F0A9479
:2037C000E2F7482B4083EE89FF894081C9010E8C02C0880F991F0A94E2F7482B4083EE8981
:2037E000FF8980810F8C02C0220F331F0A94E2F7209528232083DF91CF911F910F91FF9097
:20380000EF90DF90CF90BF90AF900895CF93DF93DC011E968D919C911F97EC01C05CDF4F93
:20382000FC01EE5BFF4F288139818081918128173907C9F75696ED91FC915797408121E098
:2038400030E0C9015C960C905C9702C0880F991F0A94E2F78095842380835696ED91FC91CF
:2038600057974081C9015D960C905D9702C0880F991F0A94E2F78095842380835696ED919B
:20388000FC9157974081C9015E960C905E9702C0880F991F0A94E2F780958423808356966A
:2038A000ED91FC91579780815F960C905F9702C0220F331F0A94E2F72095282320831C9676
:2038C000ED91FC911D97EE5BFF4F8081918192938293DF91CF910895DC011C96ED91FC913E
:2038E0001D97E05CFF4F8191919120813181805C9F4F821B930B60E470E00C94B62ADC010D
:203900001C96ED91FC911D97E05CFF4F20813181E054F040DF01AE5BBF4F8D919C9111970B
:203920002817390719F42FEF3FEF07C08D919C91E80FF91F8081282F30E0C9010895DC01E2
:203940001C96ED91FC911D97E05CFF4F20813181E054F040DF01AE5BBF4F8D919C911197CB
:203960002817390719F42FEF3FEF10C08D919C911197E80FF91F20818D919C911197019672
:203980008F73907011969C938E9330E0C9010895DC0191968C919197882339F05496ED9132
:2039A000FC915597808186FFF9CF91961C920895CF93DF93EC01EE85FF85E05CFF4F2081EB
:2039C0003181E054F0402F5F3F4F2F733070DF01AE5BBF4F8D919C91119728173907D1F346
:2039E000E05CFF4F80819181E054F040E80FF91F6083EE85FF85E05CFF4F31832083EE8985
:203A0000FF89208181E090E00F8C02C0880F991F0A94E2F7282B208381E089A3EC89FD890B
:203A200080818064808381E090E0DF91CF91089581E008951F9310927D0F10927C0F28EE3F
:203A400033E040E050E020937E0F30937F0F4093800F5093810F6AE07DE070937B0F609376
:203A60007A0F8AE59DE09093870F8093860F8EE99DE09093890F8093880F85EC90E0909313
:203A80008B0F80938A0F84EC90E090938D0F80938C0F80EC90E090938F0F80938E0F81ECD9
:203AA00090E09093910F8093900F82EC90E09093930F8093920F86EC90E09093950F80930E
:203AC000940F14E01093960FB3E0B093970FA7E0A093980FF5E0F093990FE1E0E0939A0F4D
:203AE00010929F0F10929E0F2093A00F3093A10F4093A20F5093A30F70939D0F60939C0FEC
:203B000082EE9DE09093A90F8093A80F86E29EE09093AB0F8093AA0F8DEC90E09093AD0FBC
:203B20008093AC0F8CEC90E09093AF0F8093AE0F88EC90E09093B10F8093B00F89EC90E0A0
:203B40009093B30F8093B20F8AEC90E09093B50F8093B40F8EEC90E09093B70F8093B60F5E
:203B60001093B80FB093B90FA093BA0FF093BB0FE093BC0F1092C10F1092C00F2093C20FE2
:203B80003093C30F4093C40F5093C50F7093BF0F6093BE0F8AE69EE09093CB0F8093CA0FCB
:203BA0008EEA9EE09093CD0F8093CC0F85ED90E09093CF0F8093CE0F84ED90E09093D10F6B
:203BC0008093D00F80ED90E09093D30F8093D20F81ED90E09093D50F8093D40F82ED90E063
:203BE0009093D70F8093D60F86ED90E09093D90F8093D80F1093DA0FB093DB0FA093DC0F05
:203C0000F093DD0FE093DE0F1092E30F1092E20F2093E40F3093E50F4093E60F5093E70FB0
:203C20007093E10F6093E00F82EF9EE09093ED0F8093EC0F86E39FE09093EF0F8093EE0F7A
:203C400085E391E09093F10F8093F00F84E391E09093F30F8093F20F80E391E09093F50F4A
:203C60008093F40F81E391E09093F70F8093F60F82E391E09093F90F8093F80F86E391E023
:203C80009093FB0F8093FA0F1093FC0FB093FD0FA093FE0FF093FF0FE09300101F9108953D
:203CA00080E090E008950895CF93DF930E942916FADF0E94550ACAE1D9E10E94540A20974F
:203CC000E1F3B8DAFACFFC0120E030E08081882311F421E030E0C9010895FC0181E080831E
:203CE00008950895089507C406C45BC35AC3CF92DF92EF92FF920F931F93CF93DF937C0194
:203D00006B018A01C0E0D0E00FC0D6016D916D01D701ED91FC910190F081E02DC7011995E2
:203D2000C80FD91F015010400115110571F7CE01DF91CF911F910F91FF90EF90DF90CF90B4
:203D40000895EF92FF920F931F93CF93DF937C018B01C0E0D0E0F8010F5F1F4F64916623E0
:203D600059F0D701ED91FC910190F081E02DC7011995C80FD91FEFCFCE01DF91CF911F91B6
:203D80000F91FF90EF900895CF93DF93FB01EC01A881B98160817181448155811296ED9124
:203DA000FC9113971995DF91CF910895DC01ED91FC910190F081E02D199508959C01DB01F6
:203DC000ED91FC910190F081E02DCB01B90119950895EF92FF920F931F938C01DC01ED91AA
:203DE000FC910190F081E02D6DE019957C01D801ED91FC910190F081E02DC8016AE01995FB
:203E00009C012E0D3F1DC9011F910F91FF90EF900895EF92FF920F931F937C0192DF8C01C8
:203E2000C701D7DF9C01200F311FC9011F910F91FF90EF900895EF92FF920F931F937C0140
:203E4000A3DF8C01C701C5DF9C01200F311FC9011F910F91FF90EF900895EF92FF920F9352
:203E60001F937C01DC01ED91FC910190F081E02D19958C01C701ADDF080F191FC8011F91C5
:203E80000F91FF90EF900895EF92FF920F931F937C01DB01ED91FC910190F081E02DCB0132
:203EA000B70119958C01C70194DF080F191FC8011F910F91FF90EF900895CF93DF93EC0100
:203EC0006115710519F420E030E00FC0DB010D900020E9F71197A61BB70BE881F981028001
:203EE000F381E02DAD0119959C01C901DF91CF9108954F925F927F928F929F92AF92BF924A
:203F0000CF92DF92EF92FF920F931F93DF93CF93CDB7DEB7A1970FB6F894DEBF0FBECDBFFD
:203F20002C01742ECB01223008F42AE019A231E2C32ED12CCC0EDD1E822E9924AA24BB24E3
:203F4000672D752FA50194010E94C92A79018A01C801B701A50194010E94972A472D461B60
:203F60000894C108D1084A3014F4405D01C0495CF6014083E114F1040105110521F07E2C03
:203F80005F2DC801DDCFC201B6010E949401A1960FB6F894DEBF0FBECDBFCF91DF911F9171
:203FA0000F91FF90EF90DF90CF90BF90AF909F908F907F905F904F900895DC0121153105E6
:203FC00041F4ED91FC910190F081E02D642F199508958FCFEF92FF920F931F937C01EDDFA7
:203FE0008C01C701F6DE9C01200F311FC9011F910F91FF90EF900895EF92FF920F931F9351
:204000009A017B0100E010E0B801A701D6DF1F910F91FF90EF900895CF92DF92EF92FF92C4
:204020000F931F936C017B019A0100E010E0B801A701C3DF8C01C601CCDE080F191FC801BF
:204040001F910F91FF90EF90DF90CF900895EF92FF920F931F939A01E62EFF2400E010E08F
:20406000B801A701AADF1F910F91FF90EF900895CF92DF92EF92FF920F931F936C01E62EA2
:204080009A01FF2400E010E0B801A70196DF8C01C6019FDE080F191FC8011F910F91FF90F4
:2040A000EF90DF90CF900895CF92DF92EF92FF920F931F93CF93DF93EC016A017B01211500
:2040C000310541F4E881F9810190F081E02D642F19951DC02A303105C9F477FF16C0E88163
:2040E000F9810190F081E02D6DE219958C0144275527BA014C195D096E097F09CE012AE068
:20410000F8DE9801280F391F03C02AE0F2DE9C01C901DF91CF911F910F91FF90EF90DF9000
:20412000CF900895EF92FF920F931F937C01BCDF8C01C7014EDE9C01200F311FC9011F91EE
:204140000F91FF90EF900895EF92FF920F931F937B019A010027F7FC0095102FB801A70148
:20416000A3DF1F910F91FF90EF900895CF92DF92EF92FF920F931F936C017B019A010027DF
:20418000F7FC0095102FB801A7018EDF8C01C60120DE080F191FC8011F910F91FF90EF90C2
:2041A000DF90CF9008950C9494017F928F929F92AF92BF92CF92DF92EF92FF920F931F9332
:2041C000CF93DF934C017A018B01722ECB01BA01A80197010E94932A882321F0C40166E227
:2041E0007DE020C0C0E0D0E057016801E894D7F8C601B5012FEF3FEF4FE75FE70E94932A82
:20420000882349F4C601B5012FEF3FEF4FE75FE7D4D7181614F0C1E0D0E0219739F0C4019D
:204220006AE27DE00E949401EC0188C0C801B7012FEF3FEF4FE75FE40E942C2A18164CF0C1
:20424000C801B7012FEF3FEF4FE75FECB6D7882324F4C4016EE27DE0E5CFC801B70120E019
:2042600030E040E050E0A9D787FD03C0C0E0D0E00EC0D401ED91FC910190F081E02DC40145
:204280006DE21995EC0117FB109517F9109520E030E040E05FE3DD240AC0CA01B90120E006
:2042A00030E040E251E48DD79B01AC01D394D714A0F3C801B7011DD75B016C01EFD77B0185
:2042C0008C01C401B801A7012AE030E076DEC80FD91F772039F0C40162E37DE00E94940190
:2042E000C80FD91FC801B7010E947A299B01AC01C601B501FDD620C020E030E040E251E449
:204300000E94302A7B018C01C4D75B016C01CC24B7FCC094DC2CC401B601A5012AE030E0F9
:20432000C3DEC80FD91FC601B501E6D79B01AC01C801B701DDD67A947720F1F6CE01DF918B
:20434000CF911F910F91FF90EF90DF90CF90BF90AF909F908F907F90089527CFEF92FF9241
:204360000F931F937C0121DF8C01C70132DD080F191FC8011F910F91FF90EF900895EF9274
:20438000FF920F931F937C010E9494018C01C70120DD080F191FC8011F910F91FF90EF90BC
:2043A0000895CF93DF93BC018230910510F462E070E0A0910410B0910510ED01E0E0F0E0D8
:2043C00040E050E021C0888199818617970769F48A819B81309719F09383828304C09093F8
:2043E000051080930410FE0134C06817790738F44115510519F08417950708F4AC01FE01CF
:204400008A819B819C01E9012097E9F641155105A9F1CA01861B970B049708F4BA01E0E0F2
:20442000F0E02AC08D919C91119784179507F9F46417750781F412968D919C9113973097DB
:2044400019F09383828304C09093051080930410FD0132964CC0CA01861B970BFD01E80F40
:20446000F91F6193719302978D939C9340C0FD01828193819C01D9011097A1F68091021057
:2044800090910310892B41F480913E0D90913F0D90930310809302104091400D5091410D8E
:2044A0004115510541F44DB75EB780913C0D90913D0D481B590B2091021030910310CA0114
:2044C000821B930B8617970780F0AB014E5F5F4F8417950750F0420F531F509303104093EC
:2044E0000210F9016193719302C0E0E0F0E0CF01DF91CF910895CF93DF93009709F450C0B1
:20450000EC0122971B821A82A0910410B0910510109709F140E050E0AC17BD0708F1BB8372
:20452000AA83FE0121913191E20FF31FAE17BF0779F48D919C911197280F391F2E5F3F4F43
:204540003983288312968D919C9113979B838A834115510571F4D0930510C093041020C05C
:2045600012968D919C911397AD01009711F0DC01D3CFFA01D383C28321913191E20FF31FCC
:20458000CE17DF0769F488819981280F391F2E5F3F4FFA01318320838A819B819383828392
:2045A000DF91CF910895FB01DC0102C001900D9241505040D8F70895DC0101C06D93415007
:2045C0005040E0F70895FB01DC018D91019080190110D9F3990B0895FB01DC0101900D928F
:2045E0000020E1F70895AEE0B0E0E9EFF2E20C941E2B0E891F8986E08C831A8309838FEF18
:204600009FE79E838D839E01265E3F4FCE010196688D798DA90123D02F813885020F131F84
:20462000F80110822E96E4E00C943A2BAEE0B0E0ECE1F3E20C94202B85E08C838C899D8908
:204640009A8389839E01285E3F4FCE0101966E897F89A90145D32E96E2E00C943C2BABE03F
:20466000B0E0E4E3F3E2DCC73C012B015A01FC0117821682838181FD03C06FEF7FEFB9C1EE
:204680009AE0892E1E010894211C311CF3012381F20123FD859123FF81912F01882309F4D7
:2046A000A5C1853239F423FD859123FF81912F01853221F490E0B30177D4E8CF982FFF243A
:2046C000EE249924FFE1FF15D0F09B3269F09C3228F4903259F0933291F40EC09D3249F01C
:2046E000903369F441E024C052E0F52A84E0F82A28C098E0F92A25C0E0E1FE2A22C0F7FC98
:2047000029C0892F80538A3070F4F6FE05C0989C902C1124980E15C0E89CE02C1124E80EF3
:20472000F0E2FF2A0EC09E3229F4F6FC5FC140E4F42A07C09C3619F450E8F52A02C09836E2
:2047400049F4F20123FD959123FF91912F01992309F0B8CF892F8554833018F08052833062
:2047600038F444E050E0A40EB51E5FE359830FC0933631F0933779F0933509F052C01FC078
:20478000F5018081898342E050E0A40EB51E610101E010E011C0F501C080D180F6FC03C0FF
:2047A0006FEF7FEF02C0692D70E042E050E0A40EB51EC601ACD38C015FE7F52213C0F501B5
:2047C000C080D180F6FC03C06FEF7FEF02C0692D70E042E050E0A40EB51EC6018DD38C0194
:2047E00050E8F52AF3FE06C018C080E290E0B301DBD3EA948E2D90E008171907B0F30DC047
:20480000F601F7FC8591F7FE81916F0190E0B301CBD3E110EA94015010400115110581F7AB
:20482000E2C0943611F0993661F5F7FE08C0F501208131814281538184E090E00AC0F501B5
:20484000808191819C01442737FD4095542F82E090E0A80EB91E9FE6F92257FF09C05095AE
:204860004095309521953F4F4F4F5F4FE0E8FE2ACA01B901A1012AE030E0DCD3D82ED2183E
:204880003FC0953729F41F2D1F7E2AE030E01DC01F2D197F9F3661F0903720F4983509F0A5
:2048A000A5C00FC0903739F0983709F09FC004C028E030E00AC0106114FD146020E130E000
:2048C00004C014FD166020E132E017FF08C0F501608171818281938144E050E008C0F501AA
:2048E00080819181BC0180E090E042E050E0A40EB51EA1019FD3D82ED2188FE7F82EF1228E
:20490000F6FE0BC05EEFF522D91438F4F4FE07C0F2FC05C08FEEF82202C01D2D01C0192D45
:20492000F4FE0DC0FE01ED0DF11D8081803319F499EEF92208C01F5FF2FE05C003C08F2DD4
:20494000867809F01F5F0F2DF3FC13C0F0FE0EC01E1510F09D2C0AC09D2C9E0C911A1E2DF9
:2049600005C080E290E0B3011FD31F5F1E15C8F304C01E1510F4E11A01C0EE2404FF0EC0F4
:2049800080E390E0B30110D302FF1BC001FD03C088E790E00EC088E590E00BC0802F86780E
:2049A00081F001FF02C08BE201C080E2F7FC8DE290E0B301F9D205C080E390E0B301F4D2D1
:2049C0009A94D914C8F3DA94F101ED0DF11D808190E0B301E9D2DD20B1F705C080E290E07D
:2049E000B301E2D2EA94EE20C9F750CEF30166817781CB012B96E2E12FC6FC0120FD08C0EB
:204A000023FD05C022FF02C073836283518340830895EF92FF920F931F9344FF02C033E041
:204A200011C046FF02C034E00DC0DB01FC01AA0FBB1FEE1FFF1F1094D1F76A0F7B1F8E1FFA
:204A40009F1F31E0660F771F881F991F3150D1F77B018C01E20EF11C011D111DA801970141
:204A6000B701CA011F910F91FF90EF9008950F931F93CF93DF938C01C80154D2EC0197FD93
:204A800006C0C3D5892BC1F7CE01B801B9D2CE01DF91CF911F910F910895A0E0B0E0E2E5D6
:204AA000F5E2C6C5EC01C62E5A01122F3BD2AC018B3219F08D3249F41068CA9409F466C0A2
:204AC000CE0130D2AC0197FD61C06DEFD62ED1228D2D8073F1F44033E1F4CA9409F442C019
:204AE000CE0120D2AC0197FD3DC082E0D82A483711F0483551F480E4D82ACA9499F1CE01F4
:204B000011D2AC0199232CF42DC0D6FC02C080E1D82AEE24FF248701242F2053283080F0FA
:204B2000D4FC09C02A3060F0D6FE05C02F7D822F8151863020F0CA01BE0162D210C027509F
:204B4000C801B7014D2D65DF7B018C0182E0D82ACA9459F0CE01E6D1AC0197FFDDCFD1FCC0
:204B600004C014C0EE24FF248701D7FE08C010950095F094E094E11CF11C011D111DC501F5
:204B8000B801A7012D2D39DF81E001C080E0CDB7DEB7EAE069C5A0E2B0E0E0EDF5E244C5F0
:204BA0006C01A62E8A017901FE01319680E2DF011D928A95E9F770E030E060E040E050E009
:204BC0004F01A1E0B0E0F6018381F70183FD259183FF21917F01222309F47CC02E3519F4A9
:204BE0004115510569F1872F90E08417950744F42D3551F12D3221F4332329F431E021C09D
:204C0000332309F4622F322F832F869586958695F401E80FF11D832F87703D0102C0660C37
:204C2000771C8A95E2F7208126292083361711F430E007C0361710F43F5FE6CF3150E4CF55
:204C400071E04F5F5F4FBFCF332319F08E8180628E83772359F0FE0131969E012F5D3F4F56
:204C6000808180958193E217F307D1F7BB24B3944E010894811C911CC60154D1AC0197FDC7
:204C800021C0869586958695F401E80FF11D808190E09A012770307002C0959587952A95DE
:204CA000E2F780FD04C0CA01B601AAD10BC00115110519F0D8014D938D01AA94BB24AA20AF
:204CC000D9F602C0BB2031F40115110529F0F801108202C0EE24FF24C701A096EEE0C0C42C
:204CE000A0E0B0E0E5E7F6E29FC45C016B013A01FC01178216828824DCC0812F90E085D4AA
:204D0000892B19F0C501B3DED4C0153249F4F601F3FC6591F3FE61916F01653259F415E25D
:204D2000C50100D197FDD1C0181709F4C2C0B50167D1D0C06A3219F0162F00E006C0F3FC0C
:204D40001591F3FE11916F0101E099240EC00260692D70E080E090E040E25BDE962EF60110
:204D6000F3FC1591F3FE11916F01212F20532A3070F301FD03C099249A9403C0992009F4F6
:204D8000A9C0183621F01C3699F4F6010BC0F601F3FC6591F3FE6191683619F06F01162F8F
:204DA00007C008600460F3FC1591F3FE11916F01112309F48FC084E092E0612F70E091D031
:204DC000892B09F487C0802F00FF03C0EE24FF2407C0F301E080F18022E030E0620E731E96
:204DE0001E3649F4F5014681578160E070E0C701202F03DE5EC0133689F481FD02C0992424
:204E00009394C5018FD097FD60C0E114F10419F0F70181937F019A94A1F749C01B3551F4AF
:204E2000C501692DA7019601B6DE6C01009709F03EC038C0C5011BDE97FD47C01F3641F16F
:204E4000103728F4143611F1193621F524C0133719F01537F9F41AC0C50164D0EC0197FD79
:204E60000FC0D3D3892B21F0CE01B501C9D008C0E114F10419F0F701C1937F019A9461F7CD
:204E8000E114F104A1F0F701108211C0006203C0006101C00064C501692DA701202FFDDD64
:204EA000882329F4F5018381807379F413C000FF8394F501F380F601F3FC1591F3FE11915F
:204EC0006F01112309F019CF05C0882019F42FEF3FEF02C0282D30E0C901CDB7DEB7EEE0AF
:204EE000BFC3FC010590061621F00020D9F7C00108953197CF010895FC01059061507040FB
:204F00000110D8F7809590958E0F9F1F0895FC016150704001900110D8F7809590958E0FD9
:204F20009F1F0895CF93DF93EC014B8140FF1AC046FF0AC04F7B4B838E819F8101969F83E1
:204F40008E838A81282F2BC042FF13C0E881F9818081282F332727FD30952115310529F4D8
:204F600040624B832FEF3FEF1BC03196F983E88311C0EA85FB85CE0119959C0197FF0AC0B2
:204F80009B812F5F3F4F11F080E201C080E1892B8B83E8CF8E819F8101969F838E8330E0D2
:204FA000C901DF91CF9108950F931F93CF93DF938C01EB018B8181FF1BC082FF0DC02E81B5
:204FC0003F818C819D812817390764F4E881F9810193F983E88306C0E885F985802F1995A3
:204FE000892B31F48E819F8101969F838E8302C00FEF1FEFC801DF91CF911F910F9108958B
:205000009C01FB01838180FF11C086FD0FC09FEF2F3F390759F0228380648F7D838386812A
:20502000978101979783868330E002C02FEF3FEFC9010895FA01AA27283051F1203181F1EF
:20504000E8946F936E7F6E5F7F4F8F4F9F4FAF4FB1E03ED0B4E03CD0670F781F891F9A1FD3
:20506000A11D680F791F8A1F911DA11D6A0F711D811D911DA11D20D009F468943F912AE07A
:20508000269F11243019305D3193DEF6CF010895462F4770405D4193B3E00FD0C9F7F6CFA7
:2050A000462F4F70405D4A3318F0495D31FD4052419302D0A9F7EACFB4E0A695979587951E
:2050C00077956795BA95C9F700976105710508959B01AC010A2E069457954795379527953E
:2050E000BA95C9F7620F731F841F951FA01D08955058BB27AA270ED075C166D130F06BD1EB
:2051000020F031F49F3F11F41EF45BC10EF4E095E7FB51C1E92F77D180F3BA176207730757
:205120008407950718F071F49EF58FC10EF4E0950B2EBA2FA02D0B01B90190010C01CA0163
:20514000A0011124FF27591B99F0593F50F4503E68F11A16F040A22F232F342F4427585F8B
:20516000F3CF469537952795A795F0405395C9F77EF41F16BA0B620B730B840BBAF0915085
:20518000A1F0FF0FBB1F661F771F881FC2F70EC0BA0F621F731F841F48F48795779567956E
:2051A000B795F7959E3F08F0B3CF9395880F08F09927EE0F979587950895D9D008F481E061
:2051C00008950CD00FC107D140F0FED030F021F45F3F19F0F0C0511139C1F3C014D198F3A5
:2051E0009923C9F35523B1F3951B550BBB27AA2762177307840738F09F5F5F4F220F331F83
:20520000441FAA1FA9F333D00E2E3AF0E0E830D091505040E695001CCAF729D0FE2F27D0AF
:20522000660F771F881FBB1F261737074807AB07B0E809F0BB0B802DBF01FF2793585F4FE3
:205240002AF09E3F510568F0B6C000C15F3FECF3983EDCF3869577956795B795F7959F5F57
:20526000C9F7880F911D9695879597F90895E1E0660F771F881FBB1F621773078407BA0729
:2052800020F0621B730B840BBA0BEE1F88F7E095089504D06894B111D9C00895BCD088F045
:2052A0009F5790F0B92F9927B751A0F0D1F0660F771F881F991F1AF0BA95C9F712C0B13041
:2052C00081F0C3D0B1E00895C0C0672F782F8827B85F39F0B93FCCF3869577956795B395CE
:2052E000D9F73EF490958095709561957F4F8F4F9F4F0895E89409C097FB3EF490958095FD
:20530000709561957F4F8F4F9F4F9923A9F0F92F96E9BB279395F695879577956795B795F7
:20532000F111F8CFFAF4BB0F11F460FF1BC06F5F7F4F8F4F9F4F16C0882311F096E911C073
:20534000772321F09EE8872F762F05C0662371F096E8862F70E060E02AF09A95660F771FFB
:20536000881FDAF7880F9695879597F90895990F0008550FAA0BE0E8FEEF16161706E807F4
:20538000F907C0F012161306E407F50798F0621B730B840B950B39F40A2661F0232B242B38
:2053A000252B21F408950A2609F4A140A6958FEF811D811D089597F99F6780E870E060E0BD
:2053C00008959FEF80EC089500240A941616170618060906089500240A94121613061406A7
:2053E00005060895092E0394000C11F4882352F0BB0F40F4BF2B11F460FF04C06F5F7F4F8D
:205400008F4F9F4F089557FD9058440F551F59F05F3F71F04795880F97FB991F61F09F3FEC
:2054200079F087950895121613061406551FF2CF4695F1DF08C0161617061806991FF1CF68
:2054400086957105610508940895E894BB2766277727CB0197F908958ADF08F48FEF08951A
:205460000BD0C0CFB1DF28F0B6DF18F0952309F0A2CFA7CF1124EACFC6DFA0F3959FD1F3C7
:20548000950F50E0551F629FF001729FBB27F00DB11D639FAA27F00DB11DAA1F649F66271D
:2054A000B00DA11D661F829F2227B00DA11D621F739FB00DA11D621F839FA00D611D221FEA
:2054C000749F3327A00D611D231F849F600D211D822F762F6A2F11249F5750408AF0E1F02F
:2054E00088234AF0EE0FFF1FBB1F661F771F881F91505040A9F79E3F510570F05CCFA6CFCC
:205500005F3FECF3983EDCF3869577956795B795F795E7959F5FC1F7FE2B880F911D9695A3
:20552000879597F9089523DF880B990B0895629FD001739FF001829FE00DF11D649FE00D6B
:20554000F11D929FF00D839FF00D749FF00D659FF00D9927729FB00DE11DF91F639FB00D7C
:20556000E11DF91FBD01CF011124089597FB092E07260AD077FD04D02ED006D000201AF49B
:20558000709561957F4F0895F6F7909581959F4F0895A1E21A2EAA1BBB1BFD010DC0AA1FF8
:2055A000BB1FEE1FFF1FA217B307E407F50720F0A21BB30BE40BF50B661F771F881F991F98
:2055C0001A9469F760957095809590959B01AC01BD01CF010895AA1BBB1B51E107C0AA1FB8
:2055E000BB1FA617B70710F0A61BB70B881F991F5A95A9F780959095BC01CD010895EE0F86
:20560000FF1F0590F491E02D1994911106C0803219F089508550D0F7089599278827089557
:205620002F923F924F925F926F927F928F929F92AF92BF92CF92DF92EF92FF920F931F93D8
:20564000CF93DF93CDB7DEB7CA1BDB0B0FB6F894DEBF0FBECDBF19942A88398848885F8478
:205660006E847D848C849B84AA84B984C884DF80EE80FD800C811B81AA81B981CE0FD11DAE
:205680000FB6F894DEBF0FBECDBFED010895F894FFCF2573205B25642048494C2873295D24
:2056A000007B2248494C223A7B0022626F61726473223A7B002C00002268696C2564223AB5
:2056C00025642573007D2C00227265736F7572636573223A7B00222573223A2564257300F5
:2056E000226C616E6573223A207B00222564223A25642573007D7D7D002268696C256422D5
:205700003A7B00222573223A5B0025642573005D007D007B00256325636225647225646C8B
:2057200025643D256400256325636225642A3D256400256325632A3D2564002563256362BD
:2057400025647225646C256400256325636225642A0053736225647225643D256400537373
:20576000622564732564005373622564650025632563622564640025643D2564007B22538E
:20578000494D5357223A7B22626F61726473223A7B00002C002273696D73772564223A25F3
:2057A000642573007D2C2273696D73223A7B002253494D2564223A25642573007D7D7D0007
:2057C0005B0025642573005D000D00706F6E6700547970652027682720666F722068656CF7
:2057E000702E0000000000000000000000000000000000000000000000000000000000000B
:20580000000000000000000000000000000000000000000000000000000000000000000088
:20582000000000000000000000000000000000000000000000000000000000000000000068
:205840000048494C20662F772076657220257300322E302E3000416C6C20636F6D6D616E78
:20586000647320617265207465726D696E617465642077697468205C720D0A537570706FB4
:205880007274656420636F6D6D616E64733A200D0A0D0A2020202027682720202020202069
:2058A000202020202020202020202020202020202020202D2D3E205072696E74207468695E
:2058C000732068656C70206D6573736167650D0A202020202776272020202020202020200C
:2058E000202020202020202020202020202020202D2D3E2052657475726E7320746865207C
:2059000076657273696F6E206F6620746869732066696C65206173207374617465642069D2
:205920006E207468652056455253494F4E207661726961626C650D0A202020202770272077
:205940002020202020202020202020202020202020202020202020202D2D3E2050696E6701
:20596000732041726475696E6F0D0A2020202027242E2A27202020202020202020202020E1
:2059800020202020202020202020202D2D3E2053746172747320612073657373696F6E2E9B
:2059A0000D0A202020202772272020202020202020202020202020202020202020202020B0
:2059C00020202D2D3E205072696E7473207468652073657373696F6E2069640D0A20202066
:2059E00020275B48535D64272020202020202020202020202020202020202020202D2D3E4A
:205A000020446973636F7665722074686520617661696C61626C65207265736F757263657D
:205A20007320666F722048494C206F722053494D20732F770D0A2020202027486320202083
:205A4000202020202020202020202020202020202020202020202D2D3E2051756572792098
:205A600074686520636F6E66696775726174696F6E206F662048494C20626F617264733A86
:205A80002073696E676C652C206F7220737461636B65642077697468206E20626F617264A6
:205AA000730D0A20202020274873625B302D395D2B725B302D325D6C5B302D325D3D5B30EB
:205AC000315D272D2D3E2048494C3A205B466F72206120737065636966696320626F6172F5
:205AE000642C205D2053657473206120737065636966696564207265736F75726365207471
:205B000079706520616E6420697473206C616E65202831203D20656E61626C65642C203077
:205B2000203D2064697361626C6564292E0D0A202020202748735C2A3D5B30315D2720209D
:205B400020202020202020202020202020202D2D3E2048494C3A2044697361626C6520289A
:205B60003029206F7220656E61626C652028312920616C6C207265736F7572636573205BD3
:205B8000666F72206561636820626F6172645D0D0A20202020274873625B302D395D2B5CD8
:205BA0002A3D5B30315D272020202020202020202D2D3E2048494C3A2044697361626C657B
:205BC00020283029206F7220656E61626C652028312920616C6C207265736F7572636573A6
:205BE00020666F72206120737065636966696320626F6172640D0A20202020274867625B05
:205C0000302D395D2B725B302D325D6C5B302D325D2720202020202D2D3E2048494C3A2044
:205C200052657475726E20746865207374617465206F6620612073706563696669632072D4
:205C400065736F75726365205B6F6E206120737065636966696320626F6172645D2E0D0A45
:205C600020202020274867625B302D395D2B5C2A2720202020202020202020202020202D59
:205C80002D3E2048494C3A2052657475726E2061204A534F4E20636F6D70617469626C65A7
:205CA00020737472696E672073686F77696E6720616C6C2074686520737461746573206F11
:205CC00066207468617420626F6172642E0D0A202020202748675C2A27202020202020203D
:205CE00020202020202020202020202020202D2D3E2048494C3A2052657475726E206120D4
:205D00004A534F4E20636F6D70617469626C6520737472696E672073686F77696E672061B2
:205D20006C6C2074686520737461746573206F6620746865207265736F75726365732E0DEA
:205D40000A20202020275363625B302D395D2B2720202020202020202020202020202020DA
:205D6000202D2D3E2053494D20732F773A2067657420746865206C697374206F6620746861
:205D8000652064657465637465642053494D20636172647320696E206120737065636966F4
:205DA0006963207377697463682E0D0A20202020275373625B302D395D2B725B302D375D1A
:205DC0003D5B30315D272020202020202D2D3E2053494D20732F773A2053657420746865C5
:205DE000207374617465206F6620612053494D20636172642066726F6D20612053494D20AB
:205E0000732F77202831203D20656E61626C65642C2030203D2064697361626C6564292E20
:205E20000D0A20202020275373625B302D395D2B735B302D375D27202020202020202020FD
:205E400020202D2D3E2053494D20732F773A2053656C65637420612053494D20636172642A
:205E6000206F6E20612053494D207377697463682E0D0A20202020275373625B302D395D87
:205E80002B6527202020202020202020202020202020202D2D3E2053494D20732F773A2017
:205EA000456E61626C65207468652073656C65637465642053494D2063617264206F6E20F1
:205EC000612053494D207377697463682E0D0A20202020275373625B302D395D2B6427206E
:205EE0002020202020202020202020202020202D2D3E2053494D20732F773A20446973610D
:205F0000626C65207468652073656C65637465642053494D2063617264206F6E20612053D0
:205F2000494D207377697463682E0D0A20202020275367625B302D395D2B272020202020D1
:205F40002020202020202020202020202D2D3E2053494D20732F773A2047657473207468FE
:205F600065207374617465206F6620612053494D20732F773A205468652073656C656374A8
:205F800065642053494D20616E6420697473207374617465202831203D20656E61626C65CE
:205FA000642C2030203D2064697361626C6564292E0D0A0D0A452E672E3A0D0A4873623021
:205FC00072306C303D31202D2048494C20626F6172643A20736574732074686520737461C1
:205FE0007465206F6620555342302E0D0A4867623072306C302020202D2048494C20626F5A
:206000006172643A206765747320746865207374617465206F6620555342302E0D0A537360
:20602000623072373D312020202D2053494D207377697463683A20466F722073696D2073F2
:20604000776974636820302C2073656C656374207468652053494D3720616E6420656E61BD
:20606000626C652069742E0D0A0D0A202020566973697420687474703A2F2F68617274738B
:206080002E696E74656C2E636F6D2F68696C20666F7220737570706F72742E0D0A004F4B5A
:2060A000004552524F5200494E56414C49442053455353494F4E0057524F4E472053544176
:2060C0005445000C0C0F0C150C250C55534200504F57455200535749544348005553425F10
:2060E000485300390C3D0C430C4A0C5B4E2F415D0053696E676C6500537461636B6564003B
:20610000590C5F0C660C00000000D10A820A850A880A8B0A8E0A00000000D10A810B8D0C88
:20612000560BE30BA90B11240F222134152813261F3203160518071A172A091C0B1E0D20C7
:20614000182B0A1D0C1F0E211023000000008E129210A611320FF70FDE1003080507170FDD
:2061600009060B05180C0A090C0A100B150113021F0E11030F04210D0100010001000000E8
:20618000004D55585B005D7B0020007D005D20444556494E464F7B0000000000D81C771EA9
:2061A0006C1C9F1C7F1CC81C00000000721E771E721E721E721E721E6E616E00696E66003E
:2061C0006F7666002E0000000000721E771E200006100000FFFFFFFFFFFFFFFFFFFFFFFFF7
:2061E000FFFFFFFFFFFFFFFFFFFFFFFFFFFFFFFFFFFFFFFFFFFFFFFFFFFFFFFFFFFFFFFFBF
:20620000FFFFFFFFFFFFFFFFFFFFFFFFFFFFFFFFFFFFFFFFFFFFFFFFFFFFFFFFFFFFFFFF9E
:20622000FFFFFFFFFFFFFFFFFFFFFFFFFFFFFFFFFFFFFFFFFFFFFFFFFFFFFFFFFFFFFFFF7E
:20624000FFFFFFFFFFFFFFFFFFFFFFFFFFFFFFFFFFFFFFFFFFFFFFFFFFFFFFFFFFFFFFFF5E
:020000040003F7
:20E000000D9489F10D94B2F10D94B2F10D94B2F10D94B2F10D94B2F10D94B2F10D94B2F109
:20E020000D94B2F10D94B2F10D94B2F10D94B2F10D94B2F10D94B2F10D94B2F10D94B2F1C0
:20E040000D94B2F10D94B2F10D94B2F10D94B2F10D94B2F10D94B2F10D94B2F10D94B2F1A0
:20E060000D94B2F10D94B2F10D94B2F10D94B2F10D94B2F10D94B2F10D94B2F10D94B2F180
:20E080000D94B2F10D94B2F10D94B2F10D94B2F10D94B2F10D94B2F10D94B2F10D94B2F160
:20E0A0000D94B2F10D94B2F10D94B2F10D94B2F10D94B2F10D94B2F10D94B2F10D94B2F140
:20E0C0000D94B2F10D94B2F10D94B2F10D94B2F10D94B2F10D94B2F10D94B2F10D94B2F120
:20E0E0000D94B2F141546D656761323536300041726475696E6F206578706C6F726572205D
:20E1000073746B3530305632206279204D4C5300426F6F746C6F616465723E004875683FDC
:20E1200000436F6D70696C6564206F6E203D20004350552054797065202020203D20005F52
:20E140005F4156525F415243485F5F3D2000415652204C696243205665723D200047434305
:20E160002056657273696F6E203D20004350552049442020202020203D20004C6F772066B2
:20E18000757365202020203D20004869676820667573652020203D200045787420667573A6
:20E1A00065202020203D20004C6F636B20667573652020203D20004D6172202037203230EB
:20E1C000313300312E362E3800342E332E35005623202020414444522020206F7020636FC3
:20E1E00064652020202020696E737472756374696F6E2061646472202020496E7465727265
:20E20000757074006E6F20766563746F7200726A6D702020006A6D70200057686174207091
:20E220006F72743A00506F7274206E6F7420737570706F72746564004D7573742062652083
:20E2400061206C65747465720020005772697474696E672045450052656164696E6720456C
:20E26000450045452065727220636E743D00504F525400303D5A65726F2061646472003F78
:20E280003D43505520737461747300403D454550524F4D207465737400423D426C696E6B76
:20E2A000204C454400453D44756D7020454550524F4D00463D44756D7020464C41534800C2
:20E2C000483D48656C70004C3D4C69737420492F4F20506F72747300513D51756974005269
:20E2E0003D44756D702052414D00563D73686F7720696E7465727275707420566563746FC9
:20E30000727300593D506F727420626C696E6B002A0011241FBECFEFD1E2DEBFCDBF01E0F6
:20E320000CBF12E0A0E0B2E0EEE1FDEF03E00BBF02C007900D92A030B107D9F712E0A0E0E4
:20E34000B2E001C01D92AE30B107E1F70F9460F30D948DFE01E20EBF0FEF0DBF11241FBE9F
:20E360000D9460F30D9400F020E030E040ED57E005C0FA013197F1F72F5F3F4F2817390799
:20E38000C0F308959C01260F311DC901A0E0B0E02F5F3F4FABBFFC018791882361F0809389
:20E3A000C6008091C00086FFFCCF8091C00080648093C000EACF08958DE08093C600809141
:20E3C000C00086FFFCCF8091C00080648093C0008AE08093C6008091C00086FFFCCF809130
:20E3E000C00080648093C00008950F94C2F10F94DCF10895FC019081992359F09093C600AA
:20E400008091C00086FFFCCF8091C00080648093C0003196992379F70895282F982F92957E
:20E420009F70892F805D8A3308F0895F8093C6008091C00086FFFCCF8091C00080648093D9
:20E44000C000822F8F70982F905D9A3308F0995F9093C6008091C00086FFFCCF8091C00000
:20E4600080648093C00008959C01FB01853691051CF46330710594F0C90164E670E00F94BA
:20E480002EFE605D7F4F6093C6008091C00086FFFCCF8091C00080648093C0002B303105D2
:20E4A00014F43297B4F0C90164E670E00F942EFE6AE070E00F942EFE605D7F4F6093C60007
:20E4C0008091C00086FFFCCF8091C00080648093C000C9016AE070E00F942EFEC0968093F7
:20E4E000C6008091C00086FFFCCF8091C00080648093C00008951F93182F8EE692EE60E0E3
:20E500000F94C2F11093C6008091C00086FFFCCF8091C00080648093C0000F94DCF11F9173
:20E5200008952F923F924F925F926F927F928F929F92AF92BF92CF92DF92EF92FF920F935E
:20E540001F93DF93CF93CDB7DEB762970FB6F894DEBF0FBECDBF382E622ECA01DB015C01E2
:20E560006D01772420E2222E2E010894411C511C8BC081E0A81680E0B80681E0C80680E094
:20E58000D80628F0C601AA27BB270F940DF2BB27AD2D9C2D8B2D0F940DF28A2D0F940DF231
:20E5A0002092C6008091C00086FFFCCF8091C00080648093C0009DE29093C6008091C00001
:20E5C00086FFFCCF8091C00080648093C0002092C6008091C00086FFFCCF8091C000806415
:20E5E0008093C00019828601750188249924A1E03A1651F03A1620F0B2E03B1661F409C0D4
:20E600000BBFF701779007C0C7010F9477FE782E02C0F7017080872D0F940DF22092C6006C
:20E620008091C00086FFFCCF8091C00080648093C000872D8052F401EF70F0708F3520F41F
:20E64000E40DF51D708204C0E40DF51D8EE280830894E11CF11C011D111D0894811C911CB3
:20E6600090E18916910409F0C2CF80E190E0A0E0B0E0A80EB91ECA1EDB1E198AC2010F9413
:20E68000FAF10F94DCF16A94662009F072CF62960FB6F894DEBF0FBECDBFCF91DF911F91A2
:20E6A0000F91FF90EF90DF90CF90BF90AF909F908F907F906F905F904F903F902F900895FB
